{"abi":[{"type":"constructor","inputs":[],"stateMutability":"nonpayable"},{"type":"function","name":"UPGRADE_INTERFACE_VERSION","inputs":[],"outputs":[{"name":"","type":"string","internalType":"string"}],"stateMutability":"view"},{"type":"function","name":"addRegistry","inputs":[{"name":"registry","type":"uint64","internalType":"uint64"},{"name":"vk","type":"bytes32","internalType":"bytes32"}],"outputs":[],"stateMutability":"nonpayable"},{"type":"function","name":"coprocessorRoot","inputs":[],"outputs":[{"name":"","type":"bytes32","internalType":"bytes32"}],"stateMutability":"view"},{"type":"function","name":"getVerifier","inputs":[],"outputs":[{"name":"","type":"address","internalType":"contract ISP1Verifier"}],"stateMutability":"view"},{"type":"function","name":"initialize","inputs":[{"name":"_coprocessorRoot","type":"bytes32","internalType":"bytes32"},{"name":"_verifier","type":"address","internalType":"address"},{"name":"_domainVK","type":"bytes32","internalType":"bytes32"}],"outputs":[],"stateMutability":"nonpayable"},{"type":"function","name":"owner","inputs":[],"outputs":[{"name":"","type":"address","internalType":"address"}],"stateMutability":"view"},{"type":"function","name":"programVKs","inputs":[{"name":"","type":"address","internalType":"address"},{"name":"","type":"uint64","internalType":"uint64"}],"outputs":[{"name":"","type":"bytes32","internalType":"bytes32"}],"stateMutability":"view"},{"type":"function","name":"proxiableUUID","inputs":[],"outputs":[{"name":"","type":"bytes32","internalType":"bytes32"}],"stateMutability":"view"},{"type":"function","name":"removeRegistry","inputs":[{"name":"registry","type":"uint64","internalType":"uint64"}],"outputs":[],"stateMutability":"nonpayable"},{"type":"function","name":"renounceOwnership","inputs":[],"outputs":[],"stateMutability":"nonpayable"},{"type":"function","name":"transferOwnership","inputs":[{"name":"newOwner","type":"address","internalType":"address"}],"outputs":[],"stateMutability":"nonpayable"},{"type":"function","name":"updateDomainVK","inputs":[{"name":"_domainVK","type":"bytes32","internalType":"bytes32"}],"outputs":[],"stateMutability":"nonpayable"},{"type":"function","name":"updateVerifier","inputs":[{"name":"_verifier","type":"address","internalType":"address"}],"outputs":[],"stateMutability":"nonpayable"},{"type":"function","name":"upgradeToAndCall","inputs":[{"name":"newImplementation","type":"address","internalType":"address"},{"name":"data","type":"bytes","internalType":"bytes"}],"outputs":[],"stateMutability":"payable"},{"type":"function","name":"verifier","inputs":[],"outputs":[{"name":"","type":"address","internalType":"address"}],"stateMutability":"view"},{"type":"function","name":"verify","inputs":[{"name":"registry","type":"uint64","internalType":"uint64"},{"name":"proof","type":"bytes","internalType":"bytes"},{"name":"message","type":"bytes","internalType":"bytes"},{"name":"domainProof","type":"bytes","internalType":"bytes"},{"name":"domainMessage","type":"bytes","internalType":"bytes"}],"outputs":[{"name":"","type":"bool","internalType":"bool"}],"stateMutability":"view"},{"type":"event","name":"Initialized","inputs":[{"name":"version","type":"uint64","indexed":false,"internalType":"uint64"}],"anonymous":false},{"type":"event","name":"OwnershipTransferred","inputs":[{"name":"previousOwner","type":"address","indexed":true,"internalType":"address"},{"name":"newOwner","type":"address","indexed":true,"internalType":"address"}],"anonymous":false},{"type":"event","name":"Upgraded","inputs":[{"name":"implementation","type":"address","indexed":true,"internalType":"address"}],"anonymous":false},{"type":"error","name":"AddressEmptyCode","inputs":[{"name":"target","type":"address","internalType":"address"}]},{"type":"error","name":"ERC1967InvalidImplementation","inputs":[{"name":"implementation","type":"address","internalType":"address"}]},{"type":"error","name":"ERC1967NonPayable","inputs":[]},{"type":"error","name":"FailedCall","inputs":[]},{"type":"error","name":"InvalidInitialization","inputs":[]},{"type":"error","name":"NotInitializing","inputs":[]},{"type":"error","name":"OwnableInvalidOwner","inputs":[{"name":"owner","type":"address","internalType":"address"}]},{"type":"error","name":"OwnableUnauthorizedAccount","inputs":[{"name":"account","type":"address","internalType":"address"}]},{"type":"error","name":"UUPSUnauthorizedCallContext","inputs":[]},{"type":"error","name":"UUPSUnsupportedProxiableUUID","inputs":[{"name":"slot","type":"bytes32","internalType":"bytes32"}]}],"bytecode":{"object":"0x60a080604052346100c257306080525f516020610dd25f395f51905f525460ff8160401c166100b3576002600160401b03196001600160401b03821601610060575b604051610d0b90816100c7823960805181818161068b015261075a0152f35b6001600160401b0319166001600160401b039081175f516020610dd25f395f51905f525581527fc7f505b2f371ae2175ee4913f4499e1f2633a7b5936321eed1cdaeb6115181d290602090a15f80610041565b63f92ee8a960e01b5f5260045ffd5b5f80fdfe60806040526004361015610011575f80fd5b5f5f3560e01c8063039e7e5f1461097a57806321f342d7146109395780632b7ac3f31461091157806346657fe9146109115780634f1ef286146106df57806352d1902d146106795780635b5322361461061b578063715018a6146105b45780638da5cb5b1461058057806397d3becb146103e557806397fc007c146103945780639a4113b914610378578063ad3cb1cc1461031a578063adfac46614610127578063e4ca3311146100f95763f2fde38b146100ca575f80fd5b346100f65760203660031901126100f6576100f36100e66109ce565b6100ee610bb9565b610b48565b80f35b80fd5b50346100f65760203660031901126100f657600435610116610bb9565b610121811515610aad565b60025580f35b50346102c65760a03660031901126102c6576101416109b8565b906024356001600160401b0381116102c657610161903690600401610a34565b90926044356001600160401b0381116102c657610182903690600401610a34565b9490916064356001600160401b0381116102c6576101a4903690600401610a34565b90946084356001600160401b0381116102c6576101c5903690600401610a34565b959093335f5260036020526001600160401b0360405f2091165f5260205260405f205480156102ca576001546001600160a01b031695863b156102c6575f93610223916040519c8d95869563020a49e360e51b875260048701610b19565b0381865afa80156102bb576102a3575b85965060029594955490833b1561029f57610265906040519788968795869563020a49e360e51b875260048701610b19565b03915afa80156102945761027f575b602060405160018152f35b61028a8280926109e4565b6100f65780610274565b6040513d84823e3d90fd5b8580fd5b939450945f6102b1916109e4565b5f93928590610233565b6040513d5f823e3d90fd5b5f80fd5b60405162461bcd60e51b815260206004820152602260248201527f564b206e6f742073657420666f722073656e64657220616e6420726567697374604482015261727960f01b6064820152608490fd5b346102c6575f3660031901126102c657604080519061033981836109e4565b600582526020820191640352e302e360dc1b83528151928391602083525180918160208501528484015e5f828201840152601f01601f19168101030190f35b346102c6575f3660031901126102c65760205f54604051908152f35b346102c65760203660031901126102c6576103ad6109ce565b6103b5610bb9565b6001600160a01b03166103c9811515610a61565b6bffffffffffffffffffffffff60a01b60015416176001555f80f35b346102c65760603660031901126102c6576024356001600160a01b038116908190036102c6576044355f516020610cb65f395f51905f52549160ff8360401c1615926001600160401b03811680159081610578575b600114908161056e575b159081610565575b506105565767ffffffffffffffff1981166001175f516020610cb65f395f51905f52558361052a575b5061047e610bec565b610486610bec565b61048f33610b48565b610497610bec565b6004355f556104a7811515610a61565b6bffffffffffffffffffffffff60a01b60015416176001556104ca811515610aad565b6002556104d357005b68ff0000000000000000195f516020610cb65f395f51905f5254165f516020610cb65f395f51905f52557fc7f505b2f371ae2175ee4913f4499e1f2633a7b5936321eed1cdaeb6115181d2602060405160018152a1005b68ffffffffffffffffff191668010000000000000001175f516020610cb65f395f51905f525583610475565b63f92ee8a960e01b5f5260045ffd5b9050158561044c565b303b159150610444565b85915061043a565b346102c6575f3660031901126102c6575f516020610c765f395f51905f52546040516001600160a01b039091168152602090f35b346102c6575f3660031901126102c6576105cc610bb9565b5f516020610c765f395f51905f5280546001600160a01b031981169091555f906001600160a01b03167f8be0079c531659141344cd1fd0a4f28419497f9722a3daafe3b4186f6b6457e08280a3005b346102c65760403660031901126102c6576106346109ce565b602435906001600160401b03821682036102c65760018060a01b03165f5260036020526001600160401b0360405f2091165f52602052602060405f2054604051908152f35b346102c6575f3660031901126102c6577f00000000000000000000000000000000000000000000000000000000000000006001600160a01b031630036106d05760206040515f516020610c965f395f51905f528152f35b63703e46dd60e11b5f5260045ffd5b60403660031901126102c6576106f36109ce565b602435906001600160401b0382116102c657366023830112156102c65781600401359061071f82610a19565b9161072d60405193846109e4565b808352602083019336602483830101116102c657815f926024602093018737840101526001600160a01b037f0000000000000000000000000000000000000000000000000000000000000000163081149081156108ef575b506106d057610792610bb9565b6040516352d1902d60e01b81526001600160a01b0382169390602081600481885afa5f91816108bb575b506107d45784634c9c8ce360e01b5f5260045260245ffd5b805f516020610c965f395f51905f528692036108a95750823b15610897575f516020610c965f395f51905f5280546001600160a01b031916821790557fbc7cd75a20ee27fd9adebab32041f755214dbc6bffa90cc0225b39da2e5c2d3b5f80a282511561087e575f8091610874945190845af43d15610876573d9161085883610a19565b9261086660405194856109e4565b83523d5f602085013e610c17565b005b606091610c17565b5050503461088857005b63b398979f60e01b5f5260045ffd5b634c9c8ce360e01b5f5260045260245ffd5b632a87526960e21b5f5260045260245ffd5b9091506020813d6020116108e7575b816108d7602093836109e4565b810103126102c6575190866107bc565b3d91506108ca565b5f516020610c965f395f51905f52546001600160a01b03161415905084610785565b346102c6575f3660031901126102c6576001546040516001600160a01b039091168152602090f35b346102c65760403660031901126102c6576109526109b8565b335f5260036020526001600160401b0360405f2091165f5260205260405f2060243590555f80f35b346102c65760203660031901126102c6576109936109b8565b335f5260036020526001600160401b0360405f2091165f526020525f60408120555f80f35b600435906001600160401b03821682036102c657565b600435906001600160a01b03821682036102c657565b90601f801991011681019081106001600160401b03821117610a0557604052565b634e487b7160e01b5f52604160045260245ffd5b6001600160401b038111610a0557601f01601f191660200190565b9181601f840112156102c6578235916001600160401b0383116102c657602083818601950101116102c657565b15610a6857565b60405162461bcd60e51b815260206004820152601f60248201527f56657269666965722063616e6e6f74206265207a65726f2061646472657373006044820152606490fd5b15610ab457565b60405162461bcd60e51b815260206004820152601860248201527f446f6d61696e20564b2063616e6e6f74206265207a65726f00000000000000006044820152606490fd5b908060209392818452848401375f828201840152601f01601f1916010190565b9391610b459593610b37928652606060208701526060860191610af9565b926040818503910152610af9565b90565b6001600160a01b03168015610ba6575f516020610c765f395f51905f5280546001600160a01b0319811683179091556001600160a01b03167f8be0079c531659141344cd1fd0a4f28419497f9722a3daafe3b4186f6b6457e05f80a3565b631e4fbdf760e01b5f525f60045260245ffd5b5f516020610c765f395f51905f52546001600160a01b03163303610bd957565b63118cdaa760e01b5f523360045260245ffd5b60ff5f516020610cb65f395f51905f525460401c1615610c0857565b631afcd79f60e31b5f5260045ffd5b90610c3b5750805115610c2c57805190602001fd5b63d6bda27560e01b5f5260045ffd5b81511580610c6c575b610c4c575090565b639996b31560e01b5f9081526001600160a01b0391909116600452602490fd5b50803b15610c4456fe9016d09d72d40fdae2fd8ceac6b6234c7706214fd39c1cd1e609a0528c199300360894a13ba1a3210667c828492db98dca3e2076cc3735a920a3ca505d382bbcf0c57e16840df040f15088dc2f81fe391c3923bec73e23a9662efc9c229c6a00a2646970667358221220f5c19de80c64cd6e15883d4f42b1ecde8ecc1f1a5a40dda3c69219d287cd1c1264736f6c634300081c0033f0c57e16840df040f15088dc2f81fe391c3923bec73e23a9662efc9c229c6a00","linkReferences":{}},"methodIdentifiers":{"UPGRADE_INTERFACE_VERSION()":"ad3cb1cc","addRegistry(uint64,bytes32)":"21f342d7","coprocessorRoot()":"9a4113b9","getVerifier()":"46657fe9","initialize(bytes32,address,bytes32)":"97d3becb","owner()":"8da5cb5b","programVKs(address,uint64)":"5b532236","proxiableUUID()":"52d1902d","removeRegistry(uint64)":"039e7e5f","renounceOwnership()":"715018a6","transferOwnership(address)":"f2fde38b","updateDomainVK(bytes32)":"e4ca3311","updateVerifier(address)":"97fc007c","upgradeToAndCall(address,bytes)":"4f1ef286","verifier()":"2b7ac3f3","verify(uint64,bytes,bytes,bytes,bytes)":"adfac466"},"id":76}