{"abi":[{"type":"constructor","inputs":[{"name":"_owner","type":"address","internalType":"address"},{"name":"_processor","type":"address","internalType":"address"},{"name":"_config","type":"bytes","internalType":"bytes"}],"stateMutability":"nonpayable"},{"type":"fallback","stateMutability":"nonpayable"},{"type":"function","name":"config","inputs":[],"outputs":[{"name":"inputAccount","type":"address","internalType":"contract BaseAccount"},{"name":"outputAccount","type":"address","internalType":"contract BaseAccount"},{"name":"intervalType","type":"uint8","internalType":"enum Forwarder.IntervalType"},{"name":"minInterval","type":"uint64","internalType":"uint64"}],"stateMutability":"view"},{"type":"function","name":"forward","inputs":[],"outputs":[],"stateMutability":"nonpayable"},{"type":"function","name":"lastExecution","inputs":[],"outputs":[{"name":"blockHeight","type":"uint64","internalType":"uint64"},{"name":"timestamp","type":"uint64","internalType":"uint64"}],"stateMutability":"view"},{"type":"function","name":"owner","inputs":[],"outputs":[{"name":"","type":"address","internalType":"address"}],"stateMutability":"view"},{"type":"function","name":"processor","inputs":[],"outputs":[{"name":"","type":"address","internalType":"address"}],"stateMutability":"view"},{"type":"function","name":"renounceOwnership","inputs":[],"outputs":[],"stateMutability":"nonpayable"},{"type":"function","name":"transferOwnership","inputs":[{"name":"newOwner","type":"address","internalType":"address"}],"outputs":[],"stateMutability":"nonpayable"},{"type":"function","name":"updateConfig","inputs":[{"name":"_config","type":"bytes","internalType":"bytes"}],"outputs":[],"stateMutability":"nonpayable"},{"type":"function","name":"updateProcessor","inputs":[{"name":"_processor","type":"address","internalType":"address"}],"outputs":[],"stateMutability":"nonpayable"},{"type":"event","name":"OwnershipTransferred","inputs":[{"name":"previousOwner","type":"address","indexed":true,"internalType":"address"},{"name":"newOwner","type":"address","indexed":true,"internalType":"address"}],"anonymous":false},{"type":"error","name":"OwnableInvalidOwner","inputs":[{"name":"owner","type":"address","internalType":"address"}]},{"type":"error","name":"OwnableUnauthorizedAccount","inputs":[{"name":"account","type":"address","internalType":"address"}]}],"bytecode":{"object":"0x6080604052346104c05761129f8038038061001981610544565b92833981016060828203126104c05761003182610569565b9161003e60208201610569565b604082015190916001600160401b0382116104c057019282601f850112156104c05783516001600160401b03811161046757610083601f8201601f1916602001610544565b948186526020860194602083830101116104c057815f926020809301875e860101526001600160a01b03168015610512575f80546001600160a01b03198116831782556001600160a01b0316907f8be0079c531659141344cd1fd0a4f28419497f9722a3daafe3b4186f6b6457e09080a3600180546001600160a01b0319166001600160a01b03929092169190911790555f608061011f610525565b828152826020820152606060408201528260608201520152815182019160208301916020828503126104c05751906001600160401b0382116104c057019060a0828403126104c05761016f610525565b9161017c60208201610569565b835261018a60408201610569565b6020840190815260608201519094906001600160401b0381116104c0576020908301019280601f850112156104c0578351916001600160401b038311610467576101d960208460051b01610544565b9460208087868152019460061b8201019283116104c057602001925b8284106104c45750505050604083019180835260808201519160028310156104c0576060850192835260a00151906001600160401b03821682036104c057608085019182525191821561047b57935f95915f19840184811191825b61030f5760ff89169782891015610323576001808060a01b036102748b8b5161058e565b515116990160ff811161030f575b60ff8116888110156102f05789516001600160a01b03916102a29161058e565b5151168a146102b9576102b49061057d565b610282565b60405162461bcd60e51b815260206004820152600f60248201526e223ab83634b1b0ba32903a37b5b2b760891b6044820152606490fd5b5050939197509391976103029061057d565b9791938297919397610250565b634e487b7160e01b5f52601160045260245ffd5b8451600380546001600160a01b039283166001600160a01b03199182161790915587516004805491909316911617905587518051906801000000000000000082116104675760055482600555808310610414575b5060200160055f5260205f205f915b8383106103e25784518660028210156103ce5760ff60065491610100600160481b03905160081b1692169060018060481b0319161717600655604051610ce890816105b78239f35b634e487b7160e01b5f52602160045260245ffd5b60026020828160019451858060a01b03815116868060a01b031988541617875501518486015501920192019190610386565b6001600160ff1b038116810361030f576001600160ff1b038316830361030f5760055f5260205f209060011b8101908360011b015b8181106104565750610377565b5f8082556001820155600201610449565b634e487b7160e01b5f52604160045260245ffd5b60405162461bcd60e51b815260206004820152601560248201527f4e6f20666f7277617264696e6720636f6e6669677300000000000000000000006044820152606490fd5b5f80fd5b6040602085840301126104c0576040805191908201906001600160401b038211838310176104675760409260209284526104fd87610569565b815282870151838201528152019301926101f5565b631e4fbdf760e01b5f525f60045260245ffd5b6040519060a082016001600160401b0381118382101761046757604052565b6040519190601f01601f191682016001600160401b0381118382101761046757604052565b51906001600160a01b03821682036104c057565b60ff1660ff811461030f5760010190565b80518210156105a25760209160051b010190565b634e487b7160e01b5f52603260045260245ffdfe60806040526004361015610051575b3461004d5760405162461bcd60e51b8152602060048201526012602482015271119d5b98dd1a5bdb881b9bdd08199bdd5b9960721b6044820152606490fd5b5f80fd5b5f3560e01c8063715018a61461094f57806379502c55146108f45780638cc6acce1461049c5780638da5cb5b146104755780638e8c68481461042b578063b7fc3e51146103fc578063ce1b1d43146103d4578063d264e05e146101415763f2fde38b0361000e573461004d57602036600319011261004d576004356001600160a01b0381169081900361004d576100e6610a29565b801561012e575f80546001600160a01b03198116831782556001600160a01b0316907f8be0079c531659141344cd1fd0a4f28419497f9722a3daafe3b4186f6b6457e09080a3005b631e4fbdf760e01b5f525f60045260245ffd5b3461004d575f36600319011261004d576001546001600160a01b0316330361037d5760065460ff8116600281101561036957610303576001600160401b036101908160025460401c1642610a63565b9160081c16116102be575b6001600160401b0343166040516101b1816109c1565b81815260206001600160401b034216910152600254906fffffffffffffffff00000000000000004260401b16916fffffffffffffffffffffffffffffffff1916171760025560018060a01b036003541660018060a01b0360045416905f5b6005548060ff831610156102bc578110156102a8576102a39060055f5261029e84848360011b7f036b6384b5eca791c62761152d0c79bb0604c104a5fb6f4eb0703f3154bb3db160405191610263836109c1565b7f036b6384b5eca791c62761152d0c79bb0604c104a5fb6f4eb0703f3154bb3db08101546001600160a01b0316835201546020820152610a84565b610a18565b61020f565b634e487b7160e01b5f52603260045260245ffd5b005b60405162461bcd60e51b815260206004820152601860248201527f54696d6520696e74657276616c206e6f742070617373656400000000000000006044820152606490fd5b6001600160401b03610319816002541643610a63565b9160081c16111561019b5760405162461bcd60e51b815260206004820152601960248201527f426c6f636b20696e74657276616c206e6f7420706173736564000000000000006044820152606490fd5b634e487b7160e01b5f52602160045260245ffd5b60405162461bcd60e51b815260206004820152602960248201527f4f6e6c79207468652070726f636573736f722063616e2063616c6c207468697360448201526810333ab731ba34b7b760b91b6064820152608490fd5b3461004d575f36600319011261004d576001546040516001600160a01b039091168152602090f35b3461004d575f36600319011261004d5760406002546001600160401b038251918181168352831c166020820152f35b3461004d57602036600319011261004d576004356001600160a01b0381169081900361004d57610459610a29565b6bffffffffffffffffffffffff60a01b60015416176001555f80f35b3461004d575f36600319011261004d575f546040516001600160a01b039091168152602090f35b3461004d57602036600319011261004d576004356001600160401b03811161004d573660238201121561004d578060040135906104d8826109fd565b916104e660405193846109dc565b8083526020830191366024838301011161004d57815f92602460209301853784010152610511610a29565b5f6080604051610520816109a6565b8281528260208201526060604082015282606082015201528151820191602083019160208285031261004d5751906001600160401b03821161004d57019060a08284031261004d5760405191610575836109a6565b61058160208201610a4f565b835261058f60408201610a4f565b936020840194855260608201516001600160401b03811161004d576020908301019280601f8501121561004d578351916001600160401b03831161085b57604051946105e160208560051b01876109dc565b83865260208087019460061b82010192831161004d57602001925b8284106108ac57505050506040830191808352608082015191600283101561004d576060850192835260a00151906001600160401b038216820361004d57608085019182525191821561086f57935f95915f19840184811191825b6107165760ff8916978289101561072a576001808060a01b0361067b8b8b51610a70565b515116990160ff8111610716575b60ff8116888110156106f75789516001600160a01b03916106a991610a70565b5151168a146106c0576106bb90610a18565b610689565b60405162461bcd60e51b815260206004820152600f60248201526e223ab83634b1b0ba32903a37b5b2b760891b6044820152606490fd5b50509391975093919761070990610a18565b9791938297919397610657565b634e487b7160e01b5f52601160045260245ffd5b8451600380546001600160a01b039283166001600160a01b031991821617909155875160048054919093169116179055875180519068010000000000000000821161085b5760055482600555808310610808575b5060200160055f5260205f205f915b8383106107cd5784518660028210156103695760ff68ffffffffffffffff00600654925160081b1692169068ffffffffffffffffff191617176006555f80f35b60026020828160019451858060a01b038151166bffffffffffffffffffffffff60a01b8854161787550151848601550192019201919061078d565b6001600160ff1b0381168103610716576001600160ff1b03831683036107165760055f5260205f209060011b8101908360011b015b81811061084a575061077e565b5f808255600182015560020161083d565b634e487b7160e01b5f52604160045260245ffd5b60405162461bcd60e51b81526020600482015260156024820152744e6f20666f7277617264696e6720636f6e6669677360581b6044820152606490fd5b60406020858403011261004d57604051906108c6826109c1565b8451906001600160a01b038216820361004d57826020926040945282870151838201528152019301926105fc565b3461004d575f36600319011261004d576003546004546006546040516001600160a01b03938416815291909216602082015260ff82166002811015610369576080926001600160401b0391604084015260081c166060820152f35b3461004d575f36600319011261004d57610967610a29565b5f80546001600160a01b0319811682556001600160a01b03167f8be0079c531659141344cd1fd0a4f28419497f9722a3daafe3b4186f6b6457e08280a3005b60a081019081106001600160401b0382111761085b57604052565b604081019081106001600160401b0382111761085b57604052565b90601f801991011681019081106001600160401b0382111761085b57604052565b6001600160401b03811161085b57601f01601f191660200190565b60ff1660ff81146107165760010190565b5f546001600160a01b03163303610a3c57565b63118cdaa760e01b5f523360045260245ffd5b51906001600160a01b038216820361004d57565b9190820391821161071657565b80518210156102a85760209160051b010190565b80516001600160a01b031680159392908415610c4357506001600160a01b038116315b602083015180821015610c3b5750935b8415610c34576020945f948215610bfb57604051610ad588826109dc565b868152945b838714610be957506001600160a01b0316915b8514610bde5760848591925b60405197889687958693635b0e93fb60e11b855260018060a01b031660048501526024840152606060448401528051918291826064860152018484015e8181018301849052601f01601f191681010301926001600160a01b03165af18015610bd357610b625750565b3d805f833e610b7181836109dc565b81019060208183031261004d578051906001600160401b03821161004d570181601f8201121561004d578051610ba6816109fd565b92610bb460405194856109dc565b8184526020828401011161004d575f928160208094018483015e010152565b6040513d5f823e3d90fd5b508360848192610af9565b516001600160a01b0316929050610aed565b60405163a9059cbb60e01b888201526001600160a01b038216602482015260448082018490528152610c2e6064826109dc565b94610ada565b5050505050565b905093610ab7565b6040516370a0823160e01b81526001600160a01b038316600482015290602090829060249082905afa908115610bd3575f91610c80575b50610aa7565b90506020813d602011610caa575b81610c9b602093836109dc565b8101031261004d57515f610c7a565b3d9150610c8e56fea264697066735822122032634e9dd8a7a44918ac5b090dcf4ee37ade7a1f6427360cb57a13a7deb9724264736f6c634300081c0033","linkReferences":{}},"methodIdentifiers":{"config()":"79502c55","forward()":"d264e05e","lastExecution()":"b7fc3e51","owner()":"8da5cb5b","processor()":"ce1b1d43","renounceOwnership()":"715018a6","transferOwnership(address)":"f2fde38b","updateConfig(bytes)":"8cc6acce","updateProcessor(address)":"8e8c6848"},"id":94}