{"abi":[{"type":"constructor","inputs":[{"name":"_owner","type":"address","internalType":"address"},{"name":"_libraries","type":"address[]","internalType":"address[]"}],"stateMutability":"nonpayable"},{"type":"receive","stateMutability":"payable"},{"type":"function","name":"approveLibrary","inputs":[{"name":"_library","type":"address","internalType":"address"}],"outputs":[],"stateMutability":"nonpayable"},{"type":"function","name":"approvedLibraries","inputs":[{"name":"","type":"address","internalType":"address"}],"outputs":[{"name":"","type":"bool","internalType":"bool"}],"stateMutability":"view"},{"type":"function","name":"execute","inputs":[{"name":"_target","type":"address","internalType":"address"},{"name":"_value","type":"uint256","internalType":"uint256"},{"name":"_data","type":"bytes","internalType":"bytes"}],"outputs":[{"name":"result","type":"bytes","internalType":"bytes"}],"stateMutability":"nonpayable"},{"type":"function","name":"onERC721Received","inputs":[{"name":"","type":"address","internalType":"address"},{"name":"","type":"address","internalType":"address"},{"name":"","type":"uint256","internalType":"uint256"},{"name":"","type":"bytes","internalType":"bytes"}],"outputs":[{"name":"","type":"bytes4","internalType":"bytes4"}],"stateMutability":"pure"},{"type":"function","name":"owner","inputs":[],"outputs":[{"name":"","type":"address","internalType":"address"}],"stateMutability":"view"},{"type":"function","name":"removeLibrary","inputs":[{"name":"_library","type":"address","internalType":"address"}],"outputs":[],"stateMutability":"nonpayable"},{"type":"function","name":"renounceOwnership","inputs":[],"outputs":[],"stateMutability":"nonpayable"},{"type":"function","name":"transferOwnership","inputs":[{"name":"newOwner","type":"address","internalType":"address"}],"outputs":[],"stateMutability":"nonpayable"},{"type":"event","name":"OwnershipTransferred","inputs":[{"name":"previousOwner","type":"address","indexed":true,"internalType":"address"},{"name":"newOwner","type":"address","indexed":true,"internalType":"address"}],"anonymous":false},{"type":"error","name":"NotOwnerOrLibrary","inputs":[{"name":"_sender","type":"address","internalType":"address"}]},{"type":"error","name":"OwnableInvalidOwner","inputs":[{"name":"owner","type":"address","internalType":"address"}]},{"type":"error","name":"OwnableUnauthorizedAccount","inputs":[{"name":"account","type":"address","internalType":"address"}]}],"bytecode":{"object":"0x608060405234610181576106b58038038061001981610199565b92833981019060408183031261018157610032816101be565b602082015190916001600160401b03821161018157019180601f84011215610181578251926001600160401b038411610185578360051b90602080610078818501610199565b80978152019282010192831161018157602001905b828210610169575050506001600160a01b03168015610156575f80546001600160a01b03198116831782556001600160a01b0316907f8be0079c531659141344cd1fd0a4f28419497f9722a3daafe3b4186f6b6457e09080a35f5b815160ff821610156101475760ff9060018060a01b036020611fe08360051b1685010151165f52600160205260405f20600183198254161790551660ff8114610133576001016100e8565b634e487b7160e01b5f52601160045260245ffd5b6040516104e290816101d38239f35b631e4fbdf760e01b5f525f60045260245ffd5b60208091610176846101be565b81520191019061008d565b5f80fd5b634e487b7160e01b5f52604160045260245ffd5b6040519190601f01601f191682016001600160401b0381118382101761018557604052565b51906001600160a01b03821682036101815756fe6080604052600436101561001a575b3615610018575f80fd5b005b5f3560e01c8063150b7a0214610099578063715018a6146100945780638da5cb5b1461008f5780639c6d1e9b1461008a578063b61d27f614610085578063f2fde38b14610080578063f3a4b3231461007b5763fe59a6160361000e576103c8565b610387565b610302565b610232565b6101cb565b6101a4565b61014d565b346100ef5760803660031901126100ef576100b26100f3565b506100bb610109565b5060643567ffffffffffffffff81116100ef576100dc90369060040161011f565b5050630a85bd0160e11b60805260206080f35b5f80fd5b600435906001600160a01b03821682036100ef57565b602435906001600160a01b03821682036100ef57565b9181601f840112156100ef5782359167ffffffffffffffff83116100ef57602083818601950101116100ef57565b346100ef575f3660031901126100ef57610165610486565b5f80546001600160a01b0319811682556001600160a01b03167f8be0079c531659141344cd1fd0a4f28419497f9722a3daafe3b4186f6b6457e08280a3005b346100ef575f3660031901126100ef575f546040516001600160a01b039091168152602090f35b346100ef5760203660031901126100ef576001600160a01b036101ec6100f3565b165f526001602052602060ff60405f2054166040519015158152f35b602060409281835280519182918282860152018484015e5f828201840152601f01601f1916010190565b346100ef5760603660031901126100ef5761024b6100f3565b6024359060443567ffffffffffffffff81116100ef5761026f90369060040161011f565b919091335f52600160205261029061028c60405f2060ff90541690565b1590565b806102ee575b6102db575f9384936102ad6040518094819361040f565b03925af16102b9610430565b90156102d3576102cf9060405191829182610208565b0390f35b805190602001fd5b6312cf89a760e31b5f523360045260245ffd5b505f546001600160a01b0316331415610296565b346100ef5760203660031901126100ef5761031b6100f3565b610323610486565b6001600160a01b03168015610374575f80546001600160a01b03198116831782556001600160a01b0316907f8be0079c531659141344cd1fd0a4f28419497f9722a3daafe3b4186f6b6457e09080a3005b631e4fbdf760e01b5f525f60045260245ffd5b346100ef5760203660031901126100ef576103a06100f3565b6103a8610486565b6001600160a01b03165f908152600160205260409020805460ff19169055005b346100ef5760203660031901126100ef576103e16100f3565b6103e9610486565b6001600160a01b03165f908152600160208190526040909120805460ff19169091179055005b908092918237015f815290565b634e487b7160e01b5f52604160045260245ffd5b3d15610481573d9067ffffffffffffffff821161047c5760405191601f8101601f19908116603f0116830167ffffffffffffffff81118482101761047c5760405282523d5f602084013e565b61041c565b606090565b5f546001600160a01b0316330361049957565b63118cdaa760e01b5f523360045260245ffdfea264697066735822122014d77d9d86c263b14885bd5e665d4a10a5b29070f9479a3476e9c89e487a6a6564736f6c634300081d0033","linkReferences":{}},"methodIdentifiers":{"approveLibrary(address)":"fe59a616","approvedLibraries(address)":"9c6d1e9b","execute(address,uint256,bytes)":"b61d27f6","onERC721Received(address,address,uint256,bytes)":"150b7a02","owner()":"8da5cb5b","removeLibrary(address)":"f3a4b323","renounceOwnership()":"715018a6","transferOwnership(address)":"f2fde38b"},"storageLayout":{"storage":[{"astId":1216,"contract":"src/accounts/BaseAccount.sol:BaseAccount","label":"_owner","offset":0,"slot":"0","type":"t_address"},{"astId":57744,"contract":"src/accounts/BaseAccount.sol:BaseAccount","label":"approvedLibraries","offset":0,"slot":"1","type":"t_mapping(t_address,t_bool)"}],"types":{"t_address":{"encoding":"inplace","label":"address","numberOfBytes":"20"},"t_bool":{"encoding":"inplace","label":"bool","numberOfBytes":"1"},"t_mapping(t_address,t_bool)":{"encoding":"mapping","key":"t_address","label":"mapping(address => bool)","numberOfBytes":"32","value":"t_bool"}}},"id":88}