{"abi":[{"type":"constructor","inputs":[{"name":"_authorizationContract","type":"bytes32","internalType":"bytes32"},{"name":"_mailbox","type":"address","internalType":"address"},{"name":"_originDomain","type":"uint32","internalType":"uint32"},{"name":"_authorizedAddresses","type":"address[]","internalType":"address[]"}],"stateMutability":"nonpayable"},{"type":"function","name":"_executeAtomicSubroutine","inputs":[{"name":"atomicSubroutine","type":"tuple","internalType":"struct IProcessorMessageTypes.AtomicSubroutine","components":[{"name":"functions","type":"tuple[]","internalType":"struct IProcessorMessageTypes.AtomicFunction[]","components":[{"name":"contractAddress","type":"address","internalType":"address"}]},{"name":"retryLogic","type":"tuple","internalType":"struct IProcessorMessageTypes.RetryLogic","components":[{"name":"times","type":"tuple","internalType":"struct IProcessorMessageTypes.RetryTimes","components":[{"name":"retryType","type":"uint8","internalType":"enum IProcessorMessageTypes.RetryTimesType"},{"name":"amount","type":"uint64","internalType":"uint64"}]},{"name":"interval","type":"tuple","internalType":"struct IProcessorMessageTypes.Duration","components":[{"name":"durationType","type":"uint8","internalType":"enum IProcessorMessageTypes.DurationType"},{"name":"value","type":"uint64","internalType":"uint64"}]}]}]},{"name":"messages","type":"bytes[]","internalType":"bytes[]"}],"outputs":[{"name":"","type":"uint256","internalType":"uint256"}],"stateMutability":"nonpayable"},{"type":"function","name":"addAuthorizedAddress","inputs":[{"name":"_address","type":"address","internalType":"address"}],"outputs":[],"stateMutability":"nonpayable"},{"type":"function","name":"authorizationContract","inputs":[],"outputs":[{"name":"","type":"bytes32","internalType":"bytes32"}],"stateMutability":"view"},{"type":"function","name":"authorizedAddresses","inputs":[{"name":"","type":"address","internalType":"address"}],"outputs":[{"name":"","type":"bool","internalType":"bool"}],"stateMutability":"view"},{"type":"function","name":"execute","inputs":[{"name":"_body","type":"bytes","internalType":"bytes"}],"outputs":[],"stateMutability":"payable"},{"type":"function","name":"handle","inputs":[{"name":"_origin","type":"uint32","internalType":"uint32"},{"name":"_sender","type":"bytes32","internalType":"bytes32"},{"name":"_body","type":"bytes","internalType":"bytes"}],"outputs":[],"stateMutability":"payable"},{"type":"function","name":"mailbox","inputs":[],"outputs":[{"name":"","type":"address","internalType":"contract IMailbox"}],"stateMutability":"view"},{"type":"function","name":"originDomain","inputs":[],"outputs":[{"name":"","type":"uint32","internalType":"uint32"}],"stateMutability":"view"},{"type":"function","name":"owner","inputs":[],"outputs":[{"name":"","type":"address","internalType":"address"}],"stateMutability":"view"},{"type":"function","name":"paused","inputs":[],"outputs":[{"name":"","type":"bool","internalType":"bool"}],"stateMutability":"view"},{"type":"function","name":"removeAuthorizedAddress","inputs":[{"name":"_address","type":"address","internalType":"address"}],"outputs":[],"stateMutability":"nonpayable"},{"type":"function","name":"renounceOwnership","inputs":[],"outputs":[],"stateMutability":"nonpayable"},{"type":"function","name":"transferOwnership","inputs":[{"name":"newOwner","type":"address","internalType":"address"}],"outputs":[],"stateMutability":"nonpayable"},{"type":"event","name":"AuthorizedAddressAdded","inputs":[{"name":"addr","type":"address","indexed":false,"internalType":"address"}],"anonymous":false},{"type":"event","name":"AuthorizedAddressRemoved","inputs":[{"name":"addr","type":"address","indexed":false,"internalType":"address"}],"anonymous":false},{"type":"event","name":"CallbackSent","inputs":[{"name":"executionId","type":"uint64","indexed":true,"internalType":"uint64"},{"name":"result","type":"uint8","indexed":false,"internalType":"enum IProcessor.ExecutionResult"},{"name":"executedCount","type":"uint256","indexed":false,"internalType":"uint256"}],"anonymous":false},{"type":"event","name":"OwnershipTransferred","inputs":[{"name":"previousOwner","type":"address","indexed":true,"internalType":"address"},{"name":"newOwner","type":"address","indexed":true,"internalType":"address"}],"anonymous":false},{"type":"event","name":"ProcessorWasPaused","inputs":[],"anonymous":false},{"type":"event","name":"ProcessorWasResumed","inputs":[],"anonymous":false},{"type":"error","name":"AddressAlreadyAuthorized","inputs":[]},{"type":"error","name":"AddressNotAuthorized","inputs":[]},{"type":"error","name":"InvalidAddress","inputs":[]},{"type":"error","name":"InvalidOriginDomain","inputs":[]},{"type":"error","name":"NotAuthorizationContract","inputs":[]},{"type":"error","name":"OwnableInvalidOwner","inputs":[{"name":"owner","type":"address","internalType":"address"}]},{"type":"error","name":"OwnableUnauthorizedAccount","inputs":[{"name":"account","type":"address","internalType":"address"}]},{"type":"error","name":"ProcessorPaused","inputs":[]},{"type":"error","name":"UnauthorizedAccess","inputs":[]},{"type":"error","name":"UnsupportedOperation","inputs":[]}],"bytecode":{"object":"0x60e0604052346101eb57611be18038038061001981610203565b9283398101906080818303126101eb57805161003760208301610228565b9060408301519263ffffffff841684036101eb576060810151906001600160401b0382116101eb57019380601f860112156101eb578451946001600160401b0386116101ef578560051b90602080610090818501610203565b8099815201928201019283116101eb57602001905b8282106101d35750505033156101c0575f8054336001600160a01b0319821681178355916001600160a01b03909116907f8be0079c531659141344cd1fd0a4f28419497f9722a3daafe3b4186f6b6457e09080a36080526001600160a01b031660a05260c0525f5b815160ff8216101561016c5760ff9060018060a01b036020611fe08360051b1685010151165f52600160205260405f20600183198254161790551660ff81146101585760010161010d565b634e487b7160e01b5f52601160045260245ffd5b6040516119a4908161023d82396080518181816102fb015281816108c10152611853015260a05181818161029f0152818161087b0152611809015260c0518181816102d40152818161084201526118740152f35b631e4fbdf760e01b5f525f60045260245ffd5b602080916101e084610228565b8152019101906100a5565b5f80fd5b634e487b7160e01b5f52604160045260245ffd5b6040519190601f01601f191682016001600160401b038111838210176101ef57604052565b51906001600160a01b03821682036101eb5756fe60806040526004361015610011575f80fd5b5f3560e01c806309c5eabe146100e457806342f1181e146100df57806356d5d475146100da5780635c975abb146100d5578063612b9ca0146100d057806370712939146100cb578063715018a6146100c65780638da5cb5b146100c1578063cee85d7e146100bc578063d5438eae146100b7578063d7b4aa11146100b2578063f19e207e146100ad5763f2fde38b146100a8575f80fd5b610924565b6108e4565b6108aa565b610866565b610826565b6107ff565b6107a8565b610700565b6105d8565b610352565b610260565b610199565b61011a565b9181601f84011215610116578235916001600160401b038311610116576020838186019501011161011657565b5f80fd5b6020366003190112610116576004356001600160401b038111610116576101459036906004016100e9565b90335f52600160205260ff60405f205416156101795761016d61017291610177933691610513565b610bc3565b610c74565b005b631a27eac360e11b5f5260045ffd5b6001600160a01b0381160361011657565b34610116576020366003190112610116576004356101b681610188565b6101be610d14565b6001600160a01b038116801561025157805f52600160205260ff60405f205416610242577f10ac961f00d5e732ba4dcc2c6fb09bebea0eb9edd2a75c8109775ef288382e679161023d915f52600160205261022360405f20600160ff19825416179055565b6040516001600160a01b0390911681529081906020820190565b0390a1005b6372d5960760e01b5f5260045ffd5b63e6c4247b60e01b5f5260045ffd5b60603660031901126101165760043563ffffffff8116809103610116576044356001600160401b0381116101165761029c9036906004016100e9565b917f00000000000000000000000000000000000000000000000000000000000000006001600160a01b031633036101795763ffffffff7f00000000000000000000000000000000000000000000000000000000000000001603610343577f0000000000000000000000000000000000000000000000000000000000000000602435036103345761016d61017291610177933691610513565b630cd0b2e560e11b5f5260045ffd5b63f120db3360e01b5f5260045ffd5b34610116575f36600319011261011657602060ff600254166040519015158152f35b634e487b7160e01b5f52604160045260245ffd5b604081019081106001600160401b038211176103a357604052565b610374565b602081019081106001600160401b038211176103a357604052565b60a081019081106001600160401b038211176103a357604052565b606081019081106001600160401b038211176103a357604052565b90601f801991011681019081106001600160401b038211176103a357604052565b604051906104296080836103f9565b565b6001600160401b0381116103a35760051b60200190565b6003111561011657565b6001600160401b0381160361011657565b6002111561011657565b8092910391608083126101165760405161048081610388565b80936040811261011657604090815161049881610388565b84356104a381610442565b815260208501356104b38161044c565b60208201528352603f190112610116576020906060604051936104d585610388565b60408101356104e38161045d565b855201356104f08161044c565b828401520152565b6001600160401b0381116103a357601f01601f191660200190565b92919261051f826104f8565b9161052d60405193846103f9565b829481845281830111610116578281602093845f960137010152565b81601f82011215610116578035906105608261042b565b9261056e60405194856103f9565b82845260208085019360051b830101918183116101165760208101935b83851061059a57505050505090565b84356001600160401b03811161011657820183603f82011215610116576020916105cd8583604086809601359101610513565b81520194019361058b565b34610116576040366003190112610116576004356001600160401b0381116101165760a060031982360301126101165760405161061481610388565b81600401356001600160401b0381116101165782019136602384011215610116576004830135926106448461042b565b9061065260405192836103f9565b848252602060048184019660051b830101019036821161011657602401945b8186106106ce57828552846106893660248701610467565b60208201526024356001600160401b038111610116576106ca916106b46106ba923690600401610549565b90610a95565b6040519081529081906020820190565b0390f35b60208636031261011657602080916040516106e8816103a8565b88356106f381610188565b8152815201950194610671565b346101165760203660031901126101165760043561071d81610188565b610725610d14565b6001600160a01b0381165f8181526001602052604090205460ff1615610799575f90815260016020908152604091829020805460ff1916905590516001600160a01b0390921682527f66d5f06f711af3c9feba3203fdb00b51345d514c68585d9d319c5ff5e6f7759291908190810161023d565b63e65c068d60e01b5f5260045ffd5b34610116575f366003190112610116576107c0610d14565b5f80546001600160a01b0319811682556001600160a01b03167f8be0079c531659141344cd1fd0a4f28419497f9722a3daafe3b4186f6b6457e08280a3005b34610116575f366003190112610116575f546040516001600160a01b039091168152602090f35b34610116575f36600319011261011657602060405163ffffffff7f0000000000000000000000000000000000000000000000000000000000000000168152f35b34610116575f366003190112610116576040517f00000000000000000000000000000000000000000000000000000000000000006001600160a01b03168152602090f35b34610116575f3660031901126101165760206040517f00000000000000000000000000000000000000000000000000000000000000008152f35b346101165760203660031901126101165760043561090181610188565b60018060a01b03165f526001602052602060ff60405f2054166040519015158152f35b346101165760203660031901126101165760043561094181610188565b610949610d14565b6001600160a01b0316801561099a575f80546001600160a01b03198116831782556001600160a01b0316907f8be0079c531659141344cd1fd0a4f28419497f9722a3daafe3b4186f6b6457e09080a3005b631e4fbdf760e01b5f525f60045260245ffd5b634e487b7160e01b5f52601160045260245ffd5b60ff1660ff81146109d25760010190565b6109ad565b80518210156109eb5760209160051b010190565b634e487b7160e01b5f52603260045260245ffd5b60405190610a0e6020836103f9565b5f8252565b3d15610a3d573d90610a24826104f8565b91610a3260405193846103f9565b82523d5f602084013e565b606090565b6020666f72206461746160c81b917f436f6e74726163742063616c6c206661696c656420776974686f75742065727281520152565b6080906020815260276020820152610a9160408201610a42565b0190565b303303610179575f5b815180519060ff831691821015610b7357610abc82610aca926109d7565b51516001600160a01b031690565b90813b15610b34575f91610adf8392876109d7565b519082602083519301915af1610af3610a13565b9015610b085750610b03906109c1565b610a9e565b805115610b1757805190602001fd5b60405162461bcd60e51b815280610b3060048201610a77565b0390fd5b60405162461bcd60e51b815260206004820152601760248201527610dbdb9d1c9858dd08191bd95cc81b9bdd08195e1a5cdd604a1b6044820152606490fd5b5050509050515190565b81601f8201121561011657805190610b94826104f8565b92610ba260405194856103f9565b8284526020838301011161011657815f9260208093018386015e8301015290565b60606020604051610bd381610388565b5f815201528051810190602081830312610116576020810151906001600160401b0382116101165701906040828203126101165760405191610c1483610388565b602081015160058110156101165783526040810151916001600160401b03831161011657610c49926020809201920101610b7d565b602082015290565b634e487b7160e01b5f52602160045260245ffd5b60051115610c6f57565b610c51565b80516005811015610c6f57610c8881610c65565b610c955750610429611304565b60018151610ca281610c65565b610cab81610c65565b03610ce1575060ff19600254166002557f1bfdd99aed0749a05ed2f18756f3b20a0920a9caad370cdf8424eb0ab25b3e9f5f80a1565b60038151610cee81610c65565b610cf781610c65565b03610d0557610429906111ca565b639ba6061b60e01b5f5260045ffd5b5f546001600160a01b03163303610d2757565b63118cdaa760e01b5f523360045260245ffd5b51906104298261044c565b51906104298261045d565b91906040838203126101165760405190610d6982610388565b81938051610d768161045d565b83526020810151916001600160401b03831161011657602092610d999201610b7d565b910152565b9080601f83011215610116578151610db58161042b565b92610dc360405194856103f9565b81845260208085019260051b820101918383116101165760208201905b838210610def57505050505090565b81516001600160401b03811161011657602091610e1187848094880101610b7d565b815201910190610de0565b602081830312610116578051906001600160401b038211610116570160a0818303126101165760405191610e4f836103c3565b8151610e5a8161044c565b8352610e6860208301610d45565b602084015260408201516001600160401b0381116101165781610e8c918401610d50565b6040840152610e9d60608301610d3a565b606084015260808201516001600160401b03811161011657610ebf9201610d9e565b608082015290565b60405190608082018281106001600160401b038211176103a357604052606080835f81525f60208201525f60408201520152565b60021115610c6f57565b51610f0f81610efb565b90565b80929103916080831261011657604051610f2b81610388565b809360408112610116576040908151610f4381610388565b8451610f4e81610442565b81526020850151610f5e8161044c565b60208201528352603f19011261011657602090606060405193610f8085610388565b6040810151610f8e8161045d565b855201516104f08161044c565b602081830312610116578051906001600160401b0382116101165701906020828203126101165760405191610fcf836103a8565b8051906001600160401b03821161011657019080601f8301121561011657815191610ff98361042b565b9261100760405194856103f9565b80845260208085019160051b830101918383116101165760208101915b838310611035575050505050815290565b82516001600160401b0381116101165782019060c0828703601f1901126101165760405191611063836103de565b602081015161107181610188565b83526110808760408301610f12565b602084015260c08101516001600160401b0381116101165760209101019060408288031261011657604051926110b584610388565b82516110c081610188565b84526020830151936001600160401b038511610116576110e589602096879601610b7d565b848201526040820152815201920191611024565b602081830312610116578051906001600160401b03821161011657019060a082820312610116576040519161112d83610388565b80516001600160401b03811161011657810182601f820112156101165780516111558161042b565b9161116360405193846103f9565b81835260208084019260051b8201019085821161011657602001915b818310611198575050508352610c499190602001610f12565b60208387031261011657602080916040516111b2816103a8565b85516111bd81610188565b815281520192019161117f565b60025460ff166112f55760206111eb91015160208082518301019101610e1c565b6111f3610ec7565b506001600160401b0361121060608301516001600160401b031690565b1680151590816112eb575b506112b0576040810161122e8151610f05565b61123781610efb565b61128557611256602061126192510151602080825183010191016110f9565b608083015190611665565b333b61126b575050565b61127f61042992516001600160401b031690565b33611337565b6112a060206112ab9251015160208082518301019101610f9b565b608083015190611424565b611261565b6104299061127f6112bf6109ff565b916112c861041a565b5f815260016020820152925f60408501526060840152516001600160401b031690565b905042115f61121b565b635d96658d60e01b5f5260045ffd5b600160ff1960025416176002557f2b3605dd77ad5c59a59041d11336edf92dce732b7a44a20e6204416ed9fc0c975f80a1565b61042992611343610ec7565b5080511561138e575f905b61137f606060408301519201519261137661136761041a565b6001600160401b039097168752565b6020860161172f565b604084015260608301526117db565b6020810151156113a05760039061134e565b60408101516113b15760019061134e565b60029061134e565b604051906113c86040836103f9565b601782527610dbdb9d1c9858dd08191bd95cc81b9bdd08195e1a5cdd604a1b6020830152565b604051906113fd6060836103f9565b6027825261042960208301610a42565b63ffffffff1663ffffffff81146109d25760010190565b909161142e610ec7565b505f9260606001855b855180519060ff89169182101561151157610abc82611455926109d7565b90813b156114f3575f9161146a8392886109d7565b519082602083519301915af161147e610a13565b901561149d57506114916114979161140d565b966109c1565b95611437565b95509395505050505f91805115155f146114e05763ffffffff905b915b6114cc6114c561041a565b9415158552565b5f6020850152166040830152606082015290565b5063ffffffff6114ee6113ee565b6114b8565b5050945050505091505f9063ffffffff61150b6113b9565b916114ba565b505091939550935063ffffffff91506114ba565b90816020910312610116575190565b805180835260209291819084018484015e5f828201840152601f01601f1916010190565b9080602083519182815201916020808360051b8301019401925f915b83831061158357505050505090565b90919293946020806115a1600193601f198682030187528951611534565b97019301930191939290611574565b916040835260e083019180519260a060408601528351809152602061010086019401905f5b81811061163a5750505060200151928351938451946003861015610c6f5760206001600160401b039283828094610f0f9a606089015201511660808601520151805161162081610efb565b60a085015201511660c08201526020818403910152611558565b8251516001600160a01b03168652602095860195909201916001016115d5565b6040513d5f823e3d90fd5b61169091602091611674610ec7565b506040516303095ce560e51b81529384928392600484016115b0565b03815f305af15f91816116f4575b506116cc57506116ac610a13565b6116b461041a565b905f82525f60208301525f6040830152606082015290565b6116d461041a565b60018152905f602083015260408201526116ec6109ff565b606082015290565b61171791925060203d60201161171e575b61170f81836103f9565b810190611525565b905f61169e565b503d611705565b60041115610c6f57565b6004821015610c6f5752565b906004821015610c6f5752565b60a06060610f0f93602084526001600160401b0381511660208501526117766020820151604086019061173b565b6040810151828501520151916080808201520190611534565b906020610f0f928181520190611534565b610f0f939263ffffffff60609316825260208201528160408201520190611534565b602090939291936117d781604081019661173b565b0152565b5f906040516117ff816117f18660208301611748565b03601f1981018352826103f9565b6001600160a01b037f000000000000000000000000000000000000000000000000000000000000000081169290811683148414611934575060209161189c9160405194858094819363fa31de0160e01b83527f00000000000000000000000000000000000000000000000000000000000000007f0000000000000000000000000000000000000000000000000000000000000000600485016117a0565b03925af1801561192f57611910575b505b7fbf094c62e2005d837b96c60fc68289cca59fce1a2a21891e84805b81359f3ecc6001600160401b036118e783516001600160401b031690565b61190b60406020860151956118fb87611725565b01516040519384931695836117c2565b0390a2565b6119289060203d60201161171e5761170f81836103f9565b505f6118ab565b61165a565b908380935060405161195b816117f16020820195631c00ff7d60e21b87526024830161178f565b51925af150611968610a13565b506118ad56fea264697066735822122026a336ccf3bfd01f66b4c4d868bd63de134d9e3321fcb493f47f02bc668da8d364736f6c634300081d0033","linkReferences":{}},"methodIdentifiers":{"_executeAtomicSubroutine(((address)[],((uint8,uint64),(uint8,uint64))),bytes[])":"612b9ca0","addAuthorizedAddress(address)":"42f1181e","authorizationContract()":"d7b4aa11","authorizedAddresses(address)":"f19e207e","execute(bytes)":"09c5eabe","handle(uint32,bytes32,bytes)":"56d5d475","mailbox()":"d5438eae","originDomain()":"cee85d7e","owner()":"8da5cb5b","paused()":"5c975abb","removeAuthorizedAddress(address)":"70712939","renounceOwnership()":"715018a6","transferOwnership(address)":"f2fde38b"},"id":50}