{"abi":[{"type":"constructor","inputs":[{"name":"_authorizationContract","type":"bytes32","internalType":"bytes32"},{"name":"_mailbox","type":"address","internalType":"address"},{"name":"_originDomain","type":"uint32","internalType":"uint32"},{"name":"_authorizedAddresses","type":"address[]","internalType":"address[]"}],"stateMutability":"nonpayable"},{"type":"function","name":"_executeAtomicSubroutine","inputs":[{"name":"atomicSubroutine","type":"tuple","internalType":"struct IProcessorMessageTypes.AtomicSubroutine","components":[{"name":"functions","type":"tuple[]","internalType":"struct IProcessorMessageTypes.AtomicFunction[]","components":[{"name":"contractAddress","type":"address","internalType":"address"}]},{"name":"retryLogic","type":"tuple","internalType":"struct IProcessorMessageTypes.RetryLogic","components":[{"name":"times","type":"tuple","internalType":"struct IProcessorMessageTypes.RetryTimes","components":[{"name":"retryType","type":"uint8","internalType":"enum IProcessorMessageTypes.RetryTimesType"},{"name":"amount","type":"uint64","internalType":"uint64"}]},{"name":"interval","type":"tuple","internalType":"struct IProcessorMessageTypes.Duration","components":[{"name":"durationType","type":"uint8","internalType":"enum IProcessorMessageTypes.DurationType"},{"name":"value","type":"uint64","internalType":"uint64"}]}]}]},{"name":"messages","type":"bytes[]","internalType":"bytes[]"}],"outputs":[{"name":"","type":"uint256","internalType":"uint256"}],"stateMutability":"nonpayable"},{"type":"function","name":"addAuthorizedAddress","inputs":[{"name":"_address","type":"address","internalType":"address"}],"outputs":[],"stateMutability":"nonpayable"},{"type":"function","name":"authorizationContract","inputs":[],"outputs":[{"name":"","type":"bytes32","internalType":"bytes32"}],"stateMutability":"view"},{"type":"function","name":"authorizedAddresses","inputs":[{"name":"","type":"address","internalType":"address"}],"outputs":[{"name":"","type":"bool","internalType":"bool"}],"stateMutability":"view"},{"type":"function","name":"execute","inputs":[{"name":"_body","type":"bytes","internalType":"bytes"}],"outputs":[],"stateMutability":"payable"},{"type":"function","name":"handle","inputs":[{"name":"_origin","type":"uint32","internalType":"uint32"},{"name":"_sender","type":"bytes32","internalType":"bytes32"},{"name":"_body","type":"bytes","internalType":"bytes"}],"outputs":[],"stateMutability":"payable"},{"type":"function","name":"mailbox","inputs":[],"outputs":[{"name":"","type":"address","internalType":"contract IMailbox"}],"stateMutability":"view"},{"type":"function","name":"originDomain","inputs":[],"outputs":[{"name":"","type":"uint32","internalType":"uint32"}],"stateMutability":"view"},{"type":"function","name":"owner","inputs":[],"outputs":[{"name":"","type":"address","internalType":"address"}],"stateMutability":"view"},{"type":"function","name":"paused","inputs":[],"outputs":[{"name":"","type":"bool","internalType":"bool"}],"stateMutability":"view"},{"type":"function","name":"removeAuthorizedAddress","inputs":[{"name":"_address","type":"address","internalType":"address"}],"outputs":[],"stateMutability":"nonpayable"},{"type":"function","name":"renounceOwnership","inputs":[],"outputs":[],"stateMutability":"nonpayable"},{"type":"function","name":"transferOwnership","inputs":[{"name":"newOwner","type":"address","internalType":"address"}],"outputs":[],"stateMutability":"nonpayable"},{"type":"event","name":"AuthorizedAddressAdded","inputs":[{"name":"addr","type":"address","indexed":false,"internalType":"address"}],"anonymous":false},{"type":"event","name":"AuthorizedAddressRemoved","inputs":[{"name":"addr","type":"address","indexed":false,"internalType":"address"}],"anonymous":false},{"type":"event","name":"CallbackSent","inputs":[{"name":"executionId","type":"uint64","indexed":true,"internalType":"uint64"},{"name":"result","type":"uint8","indexed":false,"internalType":"enum IProcessor.ExecutionResult"},{"name":"executedCount","type":"uint256","indexed":false,"internalType":"uint256"}],"anonymous":false},{"type":"event","name":"OwnershipTransferred","inputs":[{"name":"previousOwner","type":"address","indexed":true,"internalType":"address"},{"name":"newOwner","type":"address","indexed":true,"internalType":"address"}],"anonymous":false},{"type":"event","name":"ProcessorWasPaused","inputs":[],"anonymous":false},{"type":"event","name":"ProcessorWasResumed","inputs":[],"anonymous":false},{"type":"error","name":"AddressAlreadyAuthorized","inputs":[]},{"type":"error","name":"AddressNotAuthorized","inputs":[]},{"type":"error","name":"InvalidAddress","inputs":[]},{"type":"error","name":"InvalidOriginDomain","inputs":[]},{"type":"error","name":"NotAuthorizationContract","inputs":[]},{"type":"error","name":"OwnableInvalidOwner","inputs":[{"name":"owner","type":"address","internalType":"address"}]},{"type":"error","name":"OwnableUnauthorizedAccount","inputs":[{"name":"account","type":"address","internalType":"address"}]},{"type":"error","name":"ProcessorPaused","inputs":[]},{"type":"error","name":"UnauthorizedAccess","inputs":[]},{"type":"error","name":"UnsupportedOperation","inputs":[]}],"bytecode":{"object":"0x60e0604052346101eb57611b2c8038038061001981610203565b9283398101906080818303126101eb57805161003760208301610228565b9060408301519263ffffffff841684036101eb576060810151906001600160401b0382116101eb57019380601f860112156101eb578451946001600160401b0386116101ef578560051b90602080610090818501610203565b8099815201928201019283116101eb57602001905b8282106101d35750505033156101c0575f8054336001600160a01b0319821681178355916001600160a01b03909116907f8be0079c531659141344cd1fd0a4f28419497f9722a3daafe3b4186f6b6457e09080a36080526001600160a01b031660a05260c0525f5b815160ff8216101561016c5760ff9060018060a01b036020611fe08360051b1685010151165f52600160205260405f20600183198254161790551660ff81146101585760010161010d565b634e487b7160e01b5f52601160045260245ffd5b6040516118ef908161023d82396080518181816102fb015281816108c1015261179e015260a05181818161029f0152818161087b0152611754015260c0518181816102d40152818161084201526117bf0152f35b631e4fbdf760e01b5f525f60045260245ffd5b602080916101e084610228565b8152019101906100a5565b5f80fd5b634e487b7160e01b5f52604160045260245ffd5b6040519190601f01601f191682016001600160401b038111838210176101ef57604052565b51906001600160a01b03821682036101eb5756fe60806040526004361015610011575f80fd5b5f3560e01c806309c5eabe146100e457806342f1181e146100df57806356d5d475146100da5780635c975abb146100d5578063612b9ca0146100d057806370712939146100cb578063715018a6146100c65780638da5cb5b146100c1578063cee85d7e146100bc578063d5438eae146100b7578063d7b4aa11146100b2578063f19e207e146100ad5763f2fde38b146100a8575f80fd5b610924565b6108e4565b6108aa565b610866565b610826565b6107ff565b6107a8565b610700565b6105d8565b610352565b610260565b610199565b61011a565b9181601f84011215610116578235916001600160401b038311610116576020838186019501011161011657565b5f80fd5b6020366003190112610116576004356001600160401b038111610116576101459036906004016100e9565b90335f52600160205260ff60405f205416156101795761016d61017291610177933691610513565b610b4c565b610bfd565b005b631a27eac360e11b5f5260045ffd5b6001600160a01b0381160361011657565b34610116576020366003190112610116576004356101b681610188565b6101be610c9d565b6001600160a01b038116801561025157805f52600160205260ff60405f205416610242577f10ac961f00d5e732ba4dcc2c6fb09bebea0eb9edd2a75c8109775ef288382e679161023d915f52600160205261022360405f20600160ff19825416179055565b6040516001600160a01b0390911681529081906020820190565b0390a1005b6372d5960760e01b5f5260045ffd5b63e6c4247b60e01b5f5260045ffd5b60603660031901126101165760043563ffffffff8116809103610116576044356001600160401b0381116101165761029c9036906004016100e9565b917f00000000000000000000000000000000000000000000000000000000000000006001600160a01b031633036101795763ffffffff7f00000000000000000000000000000000000000000000000000000000000000001603610343577f0000000000000000000000000000000000000000000000000000000000000000602435036103345761016d61017291610177933691610513565b630cd0b2e560e11b5f5260045ffd5b63f120db3360e01b5f5260045ffd5b34610116575f36600319011261011657602060ff600254166040519015158152f35b634e487b7160e01b5f52604160045260245ffd5b604081019081106001600160401b038211176103a357604052565b610374565b602081019081106001600160401b038211176103a357604052565b60a081019081106001600160401b038211176103a357604052565b606081019081106001600160401b038211176103a357604052565b90601f801991011681019081106001600160401b038211176103a357604052565b604051906104296080836103f9565b565b6001600160401b0381116103a35760051b60200190565b6003111561011657565b6001600160401b0381160361011657565b6002111561011657565b8092910391608083126101165760405161048081610388565b80936040811261011657604090815161049881610388565b84356104a381610442565b815260208501356104b38161044c565b60208201528352603f190112610116576020906060604051936104d585610388565b60408101356104e38161045d565b855201356104f08161044c565b828401520152565b6001600160401b0381116103a357601f01601f191660200190565b92919261051f826104f8565b9161052d60405193846103f9565b829481845281830111610116578281602093845f960137010152565b81601f82011215610116578035906105608261042b565b9261056e60405194856103f9565b82845260208085019360051b830101918183116101165760208101935b83851061059a57505050505090565b84356001600160401b03811161011657820183603f82011215610116576020916105cd8583604086809601359101610513565b81520194019361058b565b34610116576040366003190112610116576004356001600160401b0381116101165760a060031982360301126101165760405161061481610388565b81600401356001600160401b0381116101165782019136602384011215610116576004830135926106448461042b565b9061065260405192836103f9565b848252602060048184019660051b830101019036821161011657602401945b8186106106ce57828552846106893660248701610467565b60208201526024356001600160401b038111610116576106ca916106b46106ba923690600401610549565b90610a42565b6040519081529081906020820190565b0390f35b60208636031261011657602080916040516106e8816103a8565b88356106f381610188565b8152815201950194610671565b346101165760203660031901126101165760043561071d81610188565b610725610c9d565b6001600160a01b0381165f8181526001602052604090205460ff1615610799575f90815260016020908152604091829020805460ff1916905590516001600160a01b0390921682527f66d5f06f711af3c9feba3203fdb00b51345d514c68585d9d319c5ff5e6f7759291908190810161023d565b63e65c068d60e01b5f5260045ffd5b34610116575f366003190112610116576107c0610c9d565b5f80546001600160a01b0319811682556001600160a01b03167f8be0079c531659141344cd1fd0a4f28419497f9722a3daafe3b4186f6b6457e08280a3005b34610116575f366003190112610116575f546040516001600160a01b039091168152602090f35b34610116575f36600319011261011657602060405163ffffffff7f0000000000000000000000000000000000000000000000000000000000000000168152f35b34610116575f366003190112610116576040517f00000000000000000000000000000000000000000000000000000000000000006001600160a01b03168152602090f35b34610116575f3660031901126101165760206040517f00000000000000000000000000000000000000000000000000000000000000008152f35b346101165760203660031901126101165760043561090181610188565b60018060a01b03165f526001602052602060ff60405f2054166040519015158152f35b346101165760203660031901126101165760043561094181610188565b610949610c9d565b6001600160a01b0316801561099a575f80546001600160a01b03198116831782556001600160a01b0316907f8be0079c531659141344cd1fd0a4f28419497f9722a3daafe3b4186f6b6457e09080a3005b631e4fbdf760e01b5f525f60045260245ffd5b634e487b7160e01b5f52601160045260245ffd5b60ff1660ff81146109d25760010190565b6109ad565b80518210156109eb5760209160051b010190565b634e487b7160e01b5f52603260045260245ffd5b60405190610a0e6020836103f9565b5f8252565b3d15610a3d573d90610a24826104f8565b91610a3260405193846103f9565b82523d5f602084013e565b606090565b303303610179575f5b815180519060ff831691821015610afc57610a6982610a77926109d7565b51516001600160a01b031690565b90813b15610abd575f91610a8c8392876109d7565b519082602083519301915af1610aa0610a13565b9015610ab55750610ab0906109c1565b610a4b565b602081519101fd5b60405162461bcd60e51b815260206004820152601760248201527610dbdb9d1c9858dd08191bd95cc81b9bdd08195e1a5cdd604a1b6044820152606490fd5b5050509050515190565b81601f8201121561011657805190610b1d826104f8565b92610b2b60405194856103f9565b8284526020838301011161011657815f9260208093018386015e8301015290565b60606020604051610b5c81610388565b5f815201528051810190602081830312610116576020810151906001600160401b0382116101165701906040828203126101165760405191610b9d83610388565b602081015160058110156101165783526040810151916001600160401b03831161011657610bd2926020809201920101610b06565b602082015290565b634e487b7160e01b5f52602160045260245ffd5b60051115610bf857565b610bda565b80516005811015610bf857610c1181610bee565b610c1e575061042961128d565b60018151610c2b81610bee565b610c3481610bee565b03610c6a575060ff19600254166002557f1bfdd99aed0749a05ed2f18756f3b20a0920a9caad370cdf8424eb0ab25b3e9f5f80a1565b60038151610c7781610bee565b610c8081610bee565b03610c8e5761042990611153565b639ba6061b60e01b5f5260045ffd5b5f546001600160a01b03163303610cb057565b63118cdaa760e01b5f523360045260245ffd5b51906104298261044c565b51906104298261045d565b91906040838203126101165760405190610cf282610388565b81938051610cff8161045d565b83526020810151916001600160401b03831161011657602092610d229201610b06565b910152565b9080601f83011215610116578151610d3e8161042b565b92610d4c60405194856103f9565b81845260208085019260051b820101918383116101165760208201905b838210610d7857505050505090565b81516001600160401b03811161011657602091610d9a87848094880101610b06565b815201910190610d69565b602081830312610116578051906001600160401b038211610116570160a0818303126101165760405191610dd8836103c3565b8151610de38161044c565b8352610df160208301610cce565b602084015260408201516001600160401b0381116101165781610e15918401610cd9565b6040840152610e2660608301610cc3565b606084015260808201516001600160401b03811161011657610e489201610d27565b608082015290565b60405190608082018281106001600160401b038211176103a357604052606080835f81525f60208201525f60408201520152565b60021115610bf857565b51610e9881610e84565b90565b80929103916080831261011657604051610eb481610388565b809360408112610116576040908151610ecc81610388565b8451610ed781610442565b81526020850151610ee78161044c565b60208201528352603f19011261011657602090606060405193610f0985610388565b6040810151610f178161045d565b855201516104f08161044c565b602081830312610116578051906001600160401b0382116101165701906020828203126101165760405191610f58836103a8565b8051906001600160401b03821161011657019080601f8301121561011657815191610f828361042b565b92610f9060405194856103f9565b80845260208085019160051b830101918383116101165760208101915b838310610fbe575050505050815290565b82516001600160401b0381116101165782019060c0828703601f1901126101165760405191610fec836103de565b6020810151610ffa81610188565b83526110098760408301610e9b565b602084015260c08101516001600160401b03811161011657602091010190604082880312610116576040519261103e84610388565b825161104981610188565b84526020830151936001600160401b0385116101165761106e89602096879601610b06565b848201526040820152815201920191610fad565b602081830312610116578051906001600160401b03821161011657019060a08282031261011657604051916110b683610388565b80516001600160401b03811161011657810182601f820112156101165780516110de8161042b565b916110ec60405193846103f9565b81835260208084019260051b8201019085821161011657602001915b818310611121575050508352610bd29190602001610e9b565b602083870312610116576020809160405161113b816103a8565b855161114681610188565b8152815201920191611108565b60025460ff1661127e57602061117491015160208082518301019101610da5565b61117c610e50565b506001600160401b0361119960608301516001600160401b031690565b168015159081611274575b5061123957604081016111b78151610e8e565b6111c081610e84565b61120e576111df60206111ea9251015160208082518301019101611082565b6080830151906115b0565b333b6111f4575050565b61120861042992516001600160401b031690565b336112c0565b61122960206112349251015160208082518301019101610f24565b60808301519061138e565b6111ea565b610429906112086112486109ff565b9161125161041a565b5f815260016020820152925f60408501526060840152516001600160401b031690565b905042115f6111a4565b635d96658d60e01b5f5260045ffd5b600160ff1960025416176002557f2b3605dd77ad5c59a59041d11336edf92dce732b7a44a20e6204416ed9fc0c975f80a1565b610429926112cc610e50565b50805115611317575f905b61130860606040830151920151926112ff6112f061041a565b6001600160401b039097168752565b6020860161167a565b60408401526060830152611726565b602081015115611329576003906112d7565b604081015161133a576001906112d7565b6002906112d7565b604051906113516040836103f9565b601782527610dbdb9d1c9858dd08191bd95cc81b9bdd08195e1a5cdd604a1b6020830152565b63ffffffff1663ffffffff81146109d25760010190565b9091611398610e50565b505f9260606001855b855180519060ff89169182101561145c57610a69826113bf926109d7565b90813b1561143e575f916113d48392886109d7565b519082602083519301915af16113e8610a13565b901561140757506113fb61140191611377565b966109c1565b956113a1565b955093955050505063ffffffff5f92915b61142a61142361041a565b9415158552565b5f6020850152166040830152606082015290565b5050945050505091505f9063ffffffff611456611342565b91611418565b505091939550935063ffffffff9150611418565b90816020910312610116575190565b805180835260209291819084018484015e5f828201840152601f01601f1916010190565b9080602083519182815201916020808360051b8301019401925f915b8383106114ce57505050505090565b90919293946020806114ec600193601f19868203018752895161147f565b970193019301919392906114bf565b916040835260e083019180519260a060408601528351809152602061010086019401905f5b8181106115855750505060200151928351938451946003861015610bf85760206001600160401b039283828094610e989a606089015201511660808601520151805161156b81610e84565b60a085015201511660c082015260208184039101526114a3565b8251516001600160a01b0316865260209586019590920191600101611520565b6040513d5f823e3d90fd5b6115db916020916115bf610e50565b506040516303095ce560e51b81529384928392600484016114fb565b03815f305af15f918161163f575b5061161757506115f7610a13565b6115ff61041a565b905f82525f60208301525f6040830152606082015290565b61161f61041a565b60018152905f602083015260408201526116376109ff565b606082015290565b61166291925060203d602011611669575b61165a81836103f9565b810190611470565b905f6115e9565b503d611650565b60041115610bf857565b6004821015610bf85752565b906004821015610bf85752565b60a06060610e9893602084526001600160401b0381511660208501526116c160208201516040860190611686565b604081015182850152015191608080820152019061147f565b906020610e9892818152019061147f565b610e98939263ffffffff6060931682526020820152816040820152019061147f565b60209093929193611722816040810196611686565b0152565b5f9060405161174a8161173c8660208301611693565b03601f1981018352826103f9565b6001600160a01b037f00000000000000000000000000000000000000000000000000000000000000008116929081168314841461187f57506020916117e79160405194858094819363fa31de0160e01b83527f00000000000000000000000000000000000000000000000000000000000000007f0000000000000000000000000000000000000000000000000000000000000000600485016116eb565b03925af1801561187a5761185b575b505b7fbf094c62e2005d837b96c60fc68289cca59fce1a2a21891e84805b81359f3ecc6001600160401b0361183283516001600160401b031690565b611856604060208601519561184687611670565b015160405193849316958361170d565b0390a2565b6118739060203d6020116116695761165a81836103f9565b505f6117f6565b6115a5565b90838093506040516118a68161173c6020820195631c00ff7d60e21b8752602483016116da565b51925af1506118b3610a13565b506117f856fea2646970667358221220f61fadb74825c84cb98c030eef087491bbbd9a02c6b29c2b4e5191ccb296518a64736f6c634300081c0033","linkReferences":{}},"methodIdentifiers":{"_executeAtomicSubroutine(((address)[],((uint8,uint64),(uint8,uint64))),bytes[])":"612b9ca0","addAuthorizedAddress(address)":"42f1181e","authorizationContract()":"d7b4aa11","authorizedAddresses(address)":"f19e207e","execute(bytes)":"09c5eabe","handle(uint32,bytes32,bytes)":"56d5d475","mailbox()":"d5438eae","originDomain()":"cee85d7e","owner()":"8da5cb5b","paused()":"5c975abb","removeAuthorizedAddress(address)":"70712939","renounceOwnership()":"715018a6","transferOwnership(address)":"f2fde38b"},"id":109}