{"abi":[{"type":"constructor","inputs":[{"name":"_owner","type":"address","internalType":"address"},{"name":"_processor","type":"address","internalType":"address"},{"name":"_verificationGateway","type":"address","internalType":"address"},{"name":"_storeCallbacks","type":"bool","internalType":"bool"}],"stateMutability":"nonpayable"},{"type":"function","name":"addAdminAddress","inputs":[{"name":"_admin","type":"address","internalType":"address"}],"outputs":[],"stateMutability":"nonpayable"},{"type":"function","name":"addRegistries","inputs":[{"name":"registries","type":"uint64[]","internalType":"uint64[]"},{"name":"users","type":"address[][]","internalType":"address[][]"},{"name":"vks","type":"bytes32[]","internalType":"bytes32[]"},{"name":"validateBlockNumber","type":"bool[]","internalType":"bool[]"}],"outputs":[],"stateMutability":"nonpayable"},{"type":"function","name":"addStandardAuthorizations","inputs":[{"name":"_labels","type":"string[]","internalType":"string[]"},{"name":"_users","type":"address[][]","internalType":"address[][]"},{"name":"_authorizationData","type":"tuple[][]","internalType":"struct Authorization.AuthorizationData[][]","components":[{"name":"contractAddress","type":"address","internalType":"address"},{"name":"useFunctionSelector","type":"bool","internalType":"bool"},{"name":"functionSelector","type":"bytes4","internalType":"bytes4"},{"name":"callHash","type":"bytes32","internalType":"bytes32"}]}],"outputs":[],"stateMutability":"nonpayable"},{"type":"function","name":"adminAddresses","inputs":[{"name":"","type":"address","internalType":"address"}],"outputs":[{"name":"","type":"bool","internalType":"bool"}],"stateMutability":"view"},{"type":"function","name":"authorizations","inputs":[{"name":"","type":"string","internalType":"string"},{"name":"","type":"uint256","internalType":"uint256"}],"outputs":[{"name":"","type":"address","internalType":"address"}],"stateMutability":"view"},{"type":"function","name":"authorizationsData","inputs":[{"name":"","type":"string","internalType":"string"},{"name":"","type":"uint256","internalType":"uint256"}],"outputs":[{"name":"contractAddress","type":"address","internalType":"address"},{"name":"useFunctionSelector","type":"bool","internalType":"bool"},{"name":"functionSelector","type":"bytes4","internalType":"bytes4"},{"name":"callHash","type":"bytes32","internalType":"bytes32"}],"stateMutability":"view"},{"type":"function","name":"callbacks","inputs":[{"name":"","type":"uint64","internalType":"uint64"}],"outputs":[{"name":"executionResult","type":"uint8","internalType":"enum IProcessor.ExecutionResult"},{"name":"executedCount","type":"uint64","internalType":"uint64"},{"name":"data","type":"bytes","internalType":"bytes"}],"stateMutability":"view"},{"type":"function","name":"executeZKMessage","inputs":[{"name":"_message","type":"bytes","internalType":"bytes"},{"name":"_proof","type":"bytes","internalType":"bytes"},{"name":"_domainMessage","type":"bytes","internalType":"bytes"},{"name":"_domainProof","type":"bytes","internalType":"bytes"}],"outputs":[],"stateMutability":"nonpayable"},{"type":"function","name":"executionId","inputs":[],"outputs":[{"name":"","type":"uint64","internalType":"uint64"}],"stateMutability":"view"},{"type":"function","name":"getZkAuthorizationsList","inputs":[{"name":"registryId","type":"uint64","internalType":"uint64"}],"outputs":[{"name":"","type":"address[]","internalType":"address[]"}],"stateMutability":"view"},{"type":"function","name":"handleCallback","inputs":[{"name":"callbackData","type":"bytes","internalType":"bytes"}],"outputs":[],"stateMutability":"nonpayable"},{"type":"function","name":"owner","inputs":[],"outputs":[{"name":"","type":"address","internalType":"address"}],"stateMutability":"view"},{"type":"function","name":"processor","inputs":[],"outputs":[{"name":"","type":"address","internalType":"contract ProcessorBase"}],"stateMutability":"view"},{"type":"function","name":"removeAdminAddress","inputs":[{"name":"_admin","type":"address","internalType":"address"}],"outputs":[],"stateMutability":"nonpayable"},{"type":"function","name":"removeRegistries","inputs":[{"name":"registries","type":"uint64[]","internalType":"uint64[]"}],"outputs":[],"stateMutability":"nonpayable"},{"type":"function","name":"removeStandardAuthorizations","inputs":[{"name":"_labels","type":"string[]","internalType":"string[]"}],"outputs":[],"stateMutability":"nonpayable"},{"type":"function","name":"renounceOwnership","inputs":[],"outputs":[],"stateMutability":"nonpayable"},{"type":"function","name":"sendProcessorMessage","inputs":[{"name":"label","type":"string","internalType":"string"},{"name":"_message","type":"bytes","internalType":"bytes"}],"outputs":[],"stateMutability":"nonpayable"},{"type":"function","name":"storeCallbacks","inputs":[],"outputs":[{"name":"","type":"bool","internalType":"bool"}],"stateMutability":"view"},{"type":"function","name":"transferOwnership","inputs":[{"name":"newOwner","type":"address","internalType":"address"}],"outputs":[],"stateMutability":"nonpayable"},{"type":"function","name":"updateProcessor","inputs":[{"name":"_processor","type":"address","internalType":"address"}],"outputs":[],"stateMutability":"nonpayable"},{"type":"function","name":"updateVerificationGateway","inputs":[{"name":"_verificationGateway","type":"address","internalType":"address"}],"outputs":[],"stateMutability":"nonpayable"},{"type":"function","name":"validateBlockNumberExecution","inputs":[{"name":"","type":"uint64","internalType":"uint64"}],"outputs":[{"name":"","type":"bool","internalType":"bool"}],"stateMutability":"view"},{"type":"function","name":"verificationGateway","inputs":[],"outputs":[{"name":"","type":"address","internalType":"contract VerificationGateway"}],"stateMutability":"view"},{"type":"function","name":"zkAuthorizationLastExecutionBlock","inputs":[{"name":"","type":"uint64","internalType":"uint64"}],"outputs":[{"name":"","type":"uint64","internalType":"uint64"}],"stateMutability":"view"},{"type":"function","name":"zkAuthorizations","inputs":[{"name":"","type":"uint64","internalType":"uint64"},{"name":"","type":"uint256","internalType":"uint256"}],"outputs":[{"name":"","type":"address","internalType":"address"}],"stateMutability":"view"},{"type":"event","name":"AdminAddressAdded","inputs":[{"name":"admin","type":"address","indexed":true,"internalType":"address"}],"anonymous":false},{"type":"event","name":"AdminAddressRemoved","inputs":[{"name":"admin","type":"address","indexed":true,"internalType":"address"}],"anonymous":false},{"type":"event","name":"AuthorizationAdded","inputs":[{"name":"label","type":"string","indexed":false,"internalType":"string"}],"anonymous":false},{"type":"event","name":"AuthorizationRemoved","inputs":[{"name":"label","type":"string","indexed":false,"internalType":"string"}],"anonymous":false},{"type":"event","name":"CallbackReceived","inputs":[{"name":"executionId","type":"uint64","indexed":true,"internalType":"uint64"},{"name":"executionResult","type":"uint8","indexed":false,"internalType":"enum IProcessor.ExecutionResult"},{"name":"executedCount","type":"uint64","indexed":false,"internalType":"uint64"},{"name":"data","type":"bytes","indexed":false,"internalType":"bytes"}],"anonymous":false},{"type":"event","name":"OwnershipTransferred","inputs":[{"name":"previousOwner","type":"address","indexed":true,"internalType":"address"},{"name":"newOwner","type":"address","indexed":true,"internalType":"address"}],"anonymous":false},{"type":"error","name":"OwnableInvalidOwner","inputs":[{"name":"owner","type":"address","internalType":"address"}]},{"type":"error","name":"OwnableUnauthorizedAccount","inputs":[{"name":"account","type":"address","internalType":"address"}]},{"type":"error","name":"ReentrancyGuardReentrantCall","inputs":[]}],"bytecode":{"object":"0x60803461019357601f6133b238819003918201601f19168301916001600160401b038311848410176101975780849260809460405283398101031261019357610047816101ab565b610053602083016101ab565b906060610062604085016101ab565b93015190811515809203610193576001600160a01b0316918215610180575f80546001600160a01b031981168517825560405194916001600160a01b03909116907f8be0079c531659141344cd1fd0a4f28419497f9722a3daafe3b4186f6b6457e09080a3600180556001600160a01b031691821561013e575060028054600880546001600160a01b0319166001600160a01b0390961695909517909455600480546001600160401b03191690556001600160a81b03199093169190911760a09190911b60ff60a01b161790556040516131f290816101c08239f35b62461bcd60e51b815260206004820181905260248201527f50726f636573736f722063616e6e6f74206265207a65726f20616464726573736044820152606490fd5b631e4fbdf760e01b5f525f60045260245ffd5b5f80fd5b634e487b7160e01b5f52604160045260245ffd5b51906001600160a01b03821682036101935756fe60806040526004361015610011575f80fd5b5f5f3560e01c80624fba00146123ac578063139a0bf214611f2e5780631de8d10f14611eee5780631f532a2d14611e6e578063311c737614611e0f57806332f8b25c14611ce65780634273882514611ca35780634ed38faf14611c665780637003fdf414611927578063715018a6146118d057806376ce2dad146118aa5780638da5cb5b146118835780638e8c6848146117f35780639273c4fb1461172d57806395101181146116c85780639e7ccbe714610f8c578063a34f92e814610f52578063aa2de6c314610f15578063b06abffc14610eef578063ce1b1d4314610ec6578063d00329b7146106f9578063d47256cf146106d0578063df0cab021461058e578063f2fde38b14610508578063f5d08c19146102305763fdba7ab814610137575f80fd5b3461022d57602036600319011261022d576001600160401b03610158612710565b1681526003602052604081206001815491016040518381949083549361017d856127cc565b808552946001811690811561020957506001146101c7575b50506101a3925003836124aa565b6101c3604051928260ff6001600160401b03869560081c16911684612828565b0390f35b90809394925052602082205b8183106101ed5750509060206101a3928201015f80610195565b60209193508060019154838589010152019101909184926101d3565b915050602092506101a394915060ff191682840152151560051b8201015f80610195565b80fd5b503461022d57608036600319011261022d576004356001600160401b03811161050457610261903690600401612767565b6024356001600160401b038111610500576102809036906004016125cf565b90604435926001600160401b03841161022d573660238501121561022d578360040135926001600160401b038411610504573660248560051b8701011161050457606435946001600160401b0386116105005736602387011215610500578560040135956102ed876124cb565b966102fb60405198896124aa565b8088526024602089019160051b830101913683116104b757602401905b8282106104e85750505061032a612dbf565b61034682518551811490816104de575b816104d3575b50612859565b825b84518110156104cf576008546001600160a01b03166001600160401b0361036f83886128a5565b5116878310156104bb57813b156104b75785916044839260405194859384926321f342d760e01b8452600484015260248860051b8a01013560248401525af180156104ac57908591610493575b50506103c881846128a5565b516001600160401b036103db83886128a5565b511685526009602052604085208151916001600160401b03831161047f5760209061040684846128f2565b0190865260208620865b838110610462575050505080610428600192896128a5565b51610434575b01610348565b6001600160401b0361044682886128a5565b51168552600a60205260408520805460ff19168317905561042e565b82516001600160a01b031681830155602090920191600101610410565b634e487b7160e01b87526041600452602487fd5b8161049d916124aa565b6104a857835f6103bc565b8380fd5b6040513d87823e3d90fd5b8580fd5b634e487b7160e01b86526032600452602486fd5b8380f35b90508751145f610340565b878114915061033a565b602080916104f5846126a9565b815201910190610318565b8280fd5b5080fd5b503461022d57602036600319011261022d57610522612414565b61052a612dbf565b6001600160a01b0316801561057a5781546001600160a01b03198116821783556001600160a01b03167f8be0079c531659141344cd1fd0a4f28419497f9722a3daafe3b4186f6b6457e08380a380f35b631e4fbdf760e01b82526004829052602482fd5b503461022d57602036600319011261022d576004356001600160401b038111610504576105bf903690600401612767565b6105c7612dbf565b815b81518110156106cc5760085483906001600160a01b03166001600160401b036105f284866128a5565b5116813b1561050057829160248392604051948593849263039e7e5f60e01b845260048401525af180156106c1576106ac575b5050806001600160401b0361063c600193856128a5565b511684526009602052610651604085206128cf565b6001600160401b0361066382856128a5565b51168452600b60205260408420805467ffffffffffffffff191690556001600160401b0361069182856128a5565b51168452600a60205260408420805460ff19169055016105c9565b816106b6916124aa565b61050057825f610625565b6040513d84823e3d90fd5b8280f35b503461022d578060031936011261022d576008546040516001600160a01b039091168152602090f35b503461022d57604036600319011261022d576004356001600160401b0381116105045761072a90369060040161273a565b90916024356001600160401b0381116105045761074e61075d91369060040161273a565b610756612de5565b36916124fd565b926060602060405161076e81612474565b8481520152835184019160208584031261022d5760208501516001600160401b03811161050457850160408185031261050457604051936107ae85612474565b602082015160058110156104a85785526040820151906001600160401b0382116104a8576107e3926020918201920101612938565b946020840195865283516005811015610eb257600303610e2a5750610812855160208082518301019101612c4c565b9260206040850180515161082581612b43565b61082e81612b43565b610bb3575101519384518501946020860190602081880312610baf576020810151906001600160401b0382116104b7570160a081880312610baf576040519661087688612474565b60208201516001600160401b038111610bab5760209083010183601f82011215610bab578051906108a6826124cb565b926108b460405194856124aa565b82845260208085019360051b83010191868311610ba757602001925b828410610b7557505050506108eb9291604091895201612e30565b60208601528451518015159081610b65575b50610afa5761090f8596955151612ec3565b966080820195845b885180518210156109ab57600191906001600160a01b039061093a9083906128a5565b51511661095161094b838c516128a5565b51612f2a565b61095c838c516128a5565b516020815191012090604051926109728461243e565b8352602083018590526001600160e01b03191660408301526060820152610999828d6128a5565b526109a4818c6128a5565b5001610917565b5050919550936109bf939792965033612f67565b15610aba5783926109f8610a2492610a06610a16955b8760208201526001600160401b0360045416815260405193849160208301612d07565b03601f1981018452836124aa565b5260405192839160208301612d92565b03601f1981018352826124aa565b6002546001600160a01b0316803b15610ab6576040516304e2f55f60e11b8152602060048201529183918391829084908290610a64906024830190612804565b03925af180156106c157610aa1575b506004546001600160401b03610a8a818316612d75565b16906001600160401b031916176004556001805580f35b81610aab916124aa565b61022d57805f610a73565b5050fd5b60405162461bcd60e51b8152602060048201526013602482015272556e617574686f72697a65642061636365737360681b604482015280606481015b0390fd5b60405162461bcd60e51b815260206004820152603a60248201527f537562726f7574696e652066756e6374696f6e73206c656e67746820646f657360448201527f206e6f74206d61746368206d65737361676573206c656e6774680000000000006064820152608490fd5b905060808201515114155f6108fd565b6020808584030112610ba75760208091604051610b918161248f565b610b9a87612e1c565b81528152019301926108d0565b8980fd5b8680fd5b8480fd5b5101519384518501946020860190602081880312610baf576020810151906001600160401b0382116104b7570195602087820312610baf5760405196610bf88861248f565b6020810151906001600160401b038211610bab579060209101019082601f830112156104b757815190610c2a826124cb565b93610c3860405195866124aa565b82855260208086019360051b85010193818511610e265760208101935b858510610d5657505050505050808652518015159081610d46575b50610afa57610c828596955151612ec3565b966080820195845b88518051821015610d1857600191906001600160a01b0390610cad9083906128a5565b515116610cbe61094b838c516128a5565b610cc9838c516128a5565b51602081519101209060405192610cdf8461243e565b8352602083018590526001600160e01b03191660408301526060820152610d06828d6128a5565b52610d11818c6128a5565b5001610c8a565b505091955093610d2c939792965033612f67565b15610aba5783926109f8610a2492610a06610a16956109d5565b905060808201515114155f610c70565b84516001600160401b038111610e2257820160c081860312610e225760405190610d7f82612459565b610d8b60208201612e1c565b8252610d9a8560408301612e30565b602083015260c0810151906001600160401b038211610e1e57016020810190604090870312610e1a5760405190610dd082612474565b610dd981612e1c565b82526020810151906001600160401b038211610e165791610e0287602096949387969401612938565b848201526040820152815201940193610c55565b8d80fd5b8b80fd5b8c80fd5b8a80fd5b8880fd5b94915092508151936005851015610e9e5760048495145f14610e935750610a16916109f8610e8e92610e5a612e05565b610a06610e71825160208082518301019101612a77565b6001600160401b0360045416815260405193849160208301612bcb565b610a24565b915050610e8e612e05565b634e487b7160e01b84526021600452602484fd5b634e487b7160e01b83526021600452602483fd5b503461022d578060031936011261022d576002546040516001600160a01b039091168152602090f35b503461022d578060031936011261022d57602060ff60025460a01c166040519015158152f35b503461022d57602036600319011261022d5760ff60406020926001600160401b03610f3e612710565b168152600a84522054166040519015158152f35b503461022d57602036600319011261022d576001600160401b03604060209282610f7a612710565b168152600b8452205416604051908152f35b50346113a85760803660031901126113a8576004356001600160401b0381116113a857610fbd90369060040161273a565b906024356001600160401b0381116113a857610fdd90369060040161273a565b926044356001600160401b0381116113a857610ffd90369060040161273a565b92906064356001600160401b0381116113a85761101e90369060040161273a565b969093611029612de5565b6008546001600160a01b031692831561168357816020116113a8578735876020116113a85781350361163e57878201966020898903601f1901126113a85760208901356001600160401b0381116113a8578901966080888a03601f1901126113a857604051976110988961243e565b6110a460208201612726565b89526110b260408201612726565b60208a01526110c36060820161242a565b9060408a0191825260808101356001600160401b0381116113a85760209101016040818c03126113a8576040519a6110fa8c612474565b813560058110156113a8578c5260208201356001600160401b0381116113a8576111249201612533565b60208b015260608901998a52516001600160a01b03168015159081611633575b506115ee576001600160401b038851165f52600960205260405f209a604051808d6020829f549384815201905f5260205f20925f5b8181106115c957505061118e9250038d6124aa565b5f9b5f5b81518110156115b757336001600160a01b036111ae83856128a5565b511614801561159c575b6111c457600101611192565b5050909192939495969798999a5060015b15611548576001600160401b038951165f52600a60205260ff60405f2054169a8b6114d8575b89516040516356fd623360e11b81526001600160401b03909116600482015260a060248201529889978897916112359160a48a019161297e565b9060031988830301604489015261124b9261297e565b906003198683030160648701526112619261297e565b906003198483030160848501526112779261297e565b03815a6020945f91f190811561139d575f9161149d575b50156114585761129e825161299e565b6005811015611444576003036113df576109f892610a166112ed6112d060208651015160208082518301019101612c4c565b6001600160401b0360045416815260405192839160208301612d07565b6020845101525b6004546001600160401b0361130a818316612d75565b16906001600160401b031916176004556113ac575b5061133f60018060a01b0360025416915160405193849160208301612d92565b803b156113a8576040516304e2f55f60e11b815260206004820152915f918391829084908290611373906024830190612804565b03925af1801561139d5761138a575b506001805580f35b61139691505f906124aa565b5f5f611382565b6040513d5f823e3d90fd5b5f80fd5b6001600160401b03806020830151169151165f52600b60205260405f20906001600160401b03198254161790555f61131f565b6113e9825161299e565b9260058410156114445760046109f894036112f457610a1661143961141c60208651015160208082518301019101612a77565b6001600160401b0360045416815260405192839160208301612bcb565b6020845101526112f4565b634e487b7160e01b5f52602160045260245ffd5b60405162461bcd60e51b815260206004820152601960248201527f50726f6f6620766572696669636174696f6e206661696c6564000000000000006044820152606490fd5b90506020813d6020116114d0575b816114b8602093836124aa565b810103126113a8575180151581036113a8575f61128e565b3d91506114ab565b6001600160401b0360208b0151166001600160401b038b51165f52600b6020526001600160401b0360405f205416106111fb5760405162461bcd60e51b8152602060048201526015602482015274141c9bdbd9881b9bc81b1bdb99d95c881d985b1a59605a1b6044820152606490fd5b60405162461bcd60e51b815260206004820152602660248201527f556e617574686f72697a6564206164647265737320666f72207468697320726560448201526567697374727960d01b6064820152608490fd5b506001600160a01b036115af82846128a5565b5116156111b8565b5050909192939495969798999a6111d5565b91600191935060208291828060a01b0387541681520194019101918f92939193611179565b60405162461bcd60e51b815260206004820152601e60248201527f496e76616c696420617574686f72697a6174696f6e20636f6e747261637400006044820152606490fd5b90503014155f611144565b60405162461bcd60e51b815260206004820152601960248201527f436f70726f636573736f7220726f6f74206d69736d61746368000000000000006044820152606490fd5b60405162461bcd60e51b815260206004820152601c60248201527f566572696669636174696f6e2067617465776179206e6f7420736574000000006044820152606490fd5b346113a85760203660031901126113a8576116e1612414565b6116e9612dbf565b6001600160a01b03165f818152600560205260408120805460ff191690557fc41dab03d4639245f86ebd733046feb495209977c224698a4d1318fec207af5a9080a2005b346113a85760203660031901126113a8576001600160401b0361174e612710565b165f52600960205260405f20604051806020835491828152019081935f5260205f20905f5b8181106117d457505050816117899103826124aa565b604051918291602083019060208452518091526040830191905f5b8181106117b2575050500390f35b82516001600160a01b03168452859450602093840193909201916001016117a4565b82546001600160a01b0316845260209093019260019283019201611773565b346113a85760203660031901126113a85761180c612414565b611814612dbf565b6001600160a01b0316801561183f576bffffffffffffffffffffffff60a01b60025416176002555f80f35b606460405162461bcd60e51b815260206004820152602060248201527f50726f636573736f722063616e6e6f74206265207a65726f20616464726573736044820152fd5b346113a8575f3660031901126113a8575f546040516001600160a01b039091168152602090f35b346113a8575f3660031901126113a85760206001600160401b0360045416604051908152f35b346113a8575f3660031901126113a8576118e8612dbf565b5f80546001600160a01b0319811682556001600160a01b03167f8be0079c531659141344cd1fd0a4f28419497f9722a3daafe3b4186f6b6457e08280a3005b346113a85760203660031901126113a8576004356001600160401b0381116113a857611957903690600401612533565b6002546001600160a01b0381163303611c135781518201916020818403126113a8576020810151906001600160401b0382116113a85701906080828403126113a8576040516119a58161243e565b6119b160208401612924565b815260408301519360048510156113a85760208201948552606084015193604083019485526080810151906001600160401b0382116113a85760206119fd928160ff9501920101612938565b926060830193845260a01c16611a66575b6001600160401b039051169251600481101561144457611a616001600160401b037f0e6a5a94daf01fa3e93aa95500023d6dfb25b727e94114d9ff2a2bad85f1f3ea945116925160405193849384612828565b0390a2005b83516004811015611444576001600160401b0384511683519160405190611a8c82612459565b815260208101918252604081019283526001600160401b038451165f52600360205260405f20905160048110156114445760019260ff68ffffffffffffffff008454925160081b1692169068ffffffffffffffffff1916171781550190518051906001600160401b038211611bff57611b0583546127cc565b601f8111611bc4575b50602090601f8311600114611b57576001600160401b03949392915f9183611b4c575b50508160011b915f199060031b1c19161790555b9050611a0e565b015190508880611b31565b90601f19831691845f52815f20925f5b818110611bac57509160019391856001600160401b039897969410611b94575b505050811b019055611b45565b01515f1960f88460031b161c19169055888080611b87565b92936020600181928786015181550195019301611b67565b611bef90845f5260205f20601f850160051c81019160208610611bf5575b601f0160051c01906128b9565b87611b0e565b9091508190611be2565b634e487b7160e01b5f52604160045260245ffd5b60405162461bcd60e51b815260206004820152602560248201527f4f6e6c792070726f636573736f722063616e2063616c6c20746869732066756e60448201526431ba34b7b760d91b6064820152608490fd5b346113a85760203660031901126113a8576001600160a01b03611c87612414565b165f526005602052602060ff60405f2054166040519015158152f35b346113a85760203660031901126113a857611cbc612414565b611cc4612dbf565b600880546001600160a01b0319166001600160a01b0392909216919091179055005b346113a85760203660031901126113a8576004356001600160401b0381116113a857611d16903690600401612551565b611d1e612dbf565b5f5b8151811015611e0d57611d3381836128a5565b51604051815190602081818501938085835e810160078152030190208054905f815581611dc2575b5050611db960019392611da57f9bfef6e4eb8e0a845f84b7d4b802555c3f98868a52a2c41dfd1c233c70c45317936020604051809285518091835e810160068152030190206128cf565b604051918291602083526020830190612804565b0390a101611d20565b6001600160ff1b0382168203611df9575f5260205f209060011b8101905b81811015611d5b575f8082556001820155600201611de0565b634e487b7160e01b5f52601160045260245ffd5b005b346113a85760403660031901126113a857611e28612710565b6001600160401b0360243591165f52600960205260405f2080548210156113a857602091611e55916126e7565b905460405160039290921b1c6001600160a01b03168152f35b346113a857602080611e7f366126b6565b9290604051928184925191829101835e810160078152030190209081548110156113a8576080915f5260205f209060011b01600181549101546040519160018060a01b038116835260ff8160a01c161515602084015263ffffffff60e01b9060381b1660408301526060820152f35b346113a857602080611eff366126b6565b9290604051928184925191829101835e8101600681520301902080548210156113a857602091611e55916126e7565b346113a85760603660031901126113a8576004356001600160401b0381116113a857611f5e903690600401612551565b6024356001600160401b0381116113a857611f7d9036906004016125cf565b90604435916001600160401b0383116113a857366023840112156113a8578260040135611fa9816124cb565b93611fb760405195866124aa565b8185526024602086019260051b820101903682116113a85760248101925b8284106122d25750505050611fe8612dbf565b611ffd82518451811490816122c75750612859565b5f5b8251811015611e0d5761201281846128a5565b5161201d82846128a5565b518051156122825761202f83876128a5565b5190815115906040517f417574686f72697a6174696f6e20646174612061727261792063616e6e6f742060208201526d031329032b6b83a3c903337b91d160951b604082015284519261209f604e83602089019680888484015e81015f838201520301601f1981018452836124aa565b61225e575060405160208186518086835e810160068152030190208151916001600160401b038311611bff576020906120d884846128f2565b01905f5260205f205f5b83811061224157505050506020604051809285518091835e81016007815203019020815191600160401b8311611bff5781548383558084106121ef575b50602001905f5260205f20905f905b83821061217e5750505050907fc25a9f2d765939f3e875d5a89a3b55326d95232ce8f5f8dd88b6720a6616f559612175600193604051918291602083526020830190612804565b0390a101611fff565b80518051845460208381015160408501516001600160c81b03199093166001600160a01b03949094169390931792151560a01b60ff60a01b169290921760389190911c63ffffffff60a81b16178555606091909101516001858101919091556002949094019392909201910161212e565b6001600160ff1b0381168103611df9576001600160ff1b0384168403611df957825f5260205f209060011b8101908460011b015b818110612230575061211f565b5f8082556001820155600201612223565b82516001600160a01b0316818301556020909201916001016120e2565b60405162461bcd60e51b815260206004820152908190610af6906024830190612804565b60405162461bcd60e51b815260206004820152601b60248201527f55736572732061727261792063616e6e6f7420626520656d70747900000000006044820152606490fd5b905082511485610340565b83356001600160401b0381116113a8578201366043820112156113a85760248101356122fd816124cb565b9161230b60405193846124aa565b818352602060248185019360071b83010101903682116113a857604401915b81831061234257505050815260209384019301611fd5565b6080833603126113a857604051906123598261243e565b6123628461242a565b8252612370602085016126a9565b60208301526040840135906001600160e01b0319821682036113a85782602092604060809501526060860135606082015281520192019161232a565b346113a85760203660031901126113a8576123c5612414565b6123cd612dbf565b6001600160a01b03165f818152600560205260408120805460ff191660011790557f089aa9975328102f8cdff40d2e2b75ad3b940f83f42c2e13c43ed875ff8f046a9080a2005b600435906001600160a01b03821682036113a857565b35906001600160a01b03821682036113a857565b608081019081106001600160401b03821117611bff57604052565b606081019081106001600160401b03821117611bff57604052565b604081019081106001600160401b03821117611bff57604052565b602081019081106001600160401b03821117611bff57604052565b90601f801991011681019081106001600160401b03821117611bff57604052565b6001600160401b038111611bff5760051b60200190565b6001600160401b038111611bff57601f01601f191660200190565b929192612509826124e2565b9161251760405193846124aa565b8294818452818301116113a8578281602093845f960137010152565b9080601f830112156113a85781602061254e933591016124fd565b90565b9080601f830112156113a8578135612568816124cb565b9261257660405194856124aa565b81845260208085019260051b820101918383116113a85760208201905b8382106125a257505050505090565b81356001600160401b0381116113a8576020916125c487848094880101612533565b815201910190612593565b9080601f830112156113a8578135906125e7826124cb565b926125f560405194856124aa565b82845260208085019360051b820101908282116113a85760208101935b82851061262157505050505090565b84356001600160401b0381116113a857820184603f820112156113a85760208101359061264d826124cb565b9161265b60405193846124aa565b8083526020808085019260051b84010101918783116113a857604001905b82821061269157505050815260209485019401612612565b6020809161269e8461242a565b815201910190612679565b359081151582036113a857565b60406003198201126113a857600435906001600160401b0382116113a8576126e091600401612533565b9060243590565b80548210156126fc575f5260205f2001905f90565b634e487b7160e01b5f52603260045260245ffd5b600435906001600160401b03821682036113a857565b35906001600160401b03821682036113a857565b9181601f840112156113a8578235916001600160401b0383116113a857602083818601950101116113a857565b9080601f830112156113a857813561277e816124cb565b9261278c60405194856124aa565b81845260208085019260051b8201019283116113a857602001905b8282106127b45750505090565b602080916127c184612726565b8152019101906127a7565b90600182811c921680156127fa575b60208310146127e657565b634e487b7160e01b5f52602260045260245ffd5b91607f16916127db565b805180835260209291819084018484015e5f828201840152601f01601f1916010190565b929190926004841015611444576001600160401b0360609261254e9583521660208201528160408201520190612804565b1561286057565b60405162461bcd60e51b815260206004820152601860248201527f4172726179206c656e67746873206d757374206d6174636800000000000000006044820152606490fd5b80518210156126fc5760209160051b010190565b8181106128c4575050565b5f81556001016128b9565b80545f8255806128dd575050565b6128f0915f5260205f20908101906128b9565b565b90600160401b8111611bff5781549080835581811061291057505050565b6128f0925f5260205f2091820191016128b9565b51906001600160401b03821682036113a857565b81601f820112156113a85780519061294f826124e2565b9261295d60405194856124aa565b828452602083830101116113a857815f9260208093018386015e8301015290565b908060209392818452848401375f828201840152601f01601f1916010190565b5160058110156114445790565b91906040838203126113a857604051906129c482612474565b8193805160028110156113a85783526020810151916001600160401b0383116113a8576020926129f49201612938565b910152565b9080601f830112156113a8578151612a10816124cb565b92612a1e60405194856124aa565b81845260208085019260051b820101918383116113a85760208201905b838210612a4a57505050505090565b81516001600160401b0381116113a857602091612a6c87848094880101612938565b815201910190612a3b565b6020818303126113a8578051906001600160401b0382116113a8570160c0818303126113a8576040519160c083018381106001600160401b03821117611bff57604052612ac382612924565b8352612ad160208301612924565b6020840152604082015160028110156113a857604084015260608201516001600160401b0381116113a85781612b089184016129ab565b6060840152612b1960808301612924565b608084015260a08201516001600160401b0381116113a857612b3b92016129f9565b60a082015290565b6002111561144457565b906040602061254e938051612b6181612b43565b84520151918160208201520190612804565b9080602083519182815201916020808360051b8301019401925f915b838310612b9e57505050505090565b9091929394602080612bbc600193601f198682030187528951612804565b97019301930191939290612b8f565b9061254e91602081526001600160401b0382511660208201526001600160401b0360208301511660408201526040820151612c0581612b43565b606082015260a0612c25606084015160c0608085015260e0840190612b4d565b926001600160401b036080820151168284015201519060c0601f1982850301910152612b73565b6020818303126113a8578051906001600160401b0382116113a8570160a0818303126113a8576040519160a083018381106001600160401b03821117611bff57604052612c9882612924565b8352602082015160028110156113a857602084015260408201516001600160401b0381116113a85781612ccc9184016129ab565b6040840152612cdd60608301612924565b606084015260808201516001600160401b0381116113a857612cff92016129f9565b608082015290565b9061254e91602081526001600160401b0382511660208201526020820151612d2e81612b43565b60408201526080612d4e604084015160a0606085015260c0840190612b4d565b926001600160401b036060820151168284015201519060a0601f1982850301910152612b73565b6001600160401b03166001600160401b038114611df95760010190565b60208152815191600583101561144457602060609161254e94828501520151916040808201520190612804565b5f546001600160a01b03163303612dd257565b63118cdaa760e01b5f523360045260245ffd5b600260015414612df6576002600155565b633ee5aeb560e01b5f5260045ffd5b335f52600560205260ff60405f20541615610aba57565b51906001600160a01b03821682036113a857565b8092910391608083126113a85760405190612e4a82612474565b8193604081126113a85760405190612e6182612474565b82519160038310156113a8576040928152612e7e60208501612924565b60208201528452603f1901126113a85760405191612e9b83612474565b60408201519160028310156113a8576060612ebb91602094865201612924565b828401520152565b90612ecd826124cb565b612eda60405191826124aa565b8281528092612eeb601f19916124cb565b01905f5b828110612efb57505050565b602090604051612f0a8161243e565b5f81525f838201525f60408201525f606082015282828501015201612eef565b80516020909101516001600160e01b0319811692919060048210612f4c575050565b6001600160e01b031960049290920360031b82901b16169150565b929190604051828282376020818481016006815203019020604051808260208294549384815201905f5260205f20925f5b81811061319a575050612fad925003826124aa565b5f945f5b825181101561318f576001600160a01b03612fcc82856128a5565b51166001600160a01b038316148015613174575b612fec57600101612fb1565b5050509091925060015b156130df576020908260405193849283378101600781520301902090815461301d816124cb565b9261302b60405194856124aa565b81845260208401905f5260205f205f915b83831061311f57505050508151815103613119575f5b8251811015613111576001600160a01b0361306d82856128a5565b5151166001600160a01b0361308283856128a5565b515116036130df57602061309682856128a5565b510151156130e6576001600160e01b031960406130b383866128a5565b510151166001600160e01b031960406130cc84866128a5565b51015116036130df576001905b01613052565b5050505f90565b60606130f282856128a5565b510151606061310183856128a5565b510151036130df576001906130d9565b505050600190565b50505f90565b600260206001926040516131328161243e565b8554858060a01b038116825260ff8160a01c1615158483015263ffffffff60e01b9060381b16604082015284860154606082015281520192019201919061303c565b506001600160a01b0361318782856128a5565b511615612fe0565b505050909192612ff6565b84546001600160a01b0316835260019485019486945060209093019201612f9856fea26469706673582212203df4d8dc0e4b77e6ccb605920dbd4d6a56a7d2cef077c0fbafd74bbbae310ebe64736f6c634300081d0033","linkReferences":{}},"methodIdentifiers":{"addAdminAddress(address)":"004fba00","addRegistries(uint64[],address[][],bytes32[],bool[])":"f5d08c19","addStandardAuthorizations(string[],address[][],(address,bool,bytes4,bytes32)[][])":"139a0bf2","adminAddresses(address)":"4ed38faf","authorizations(string,uint256)":"1de8d10f","authorizationsData(string,uint256)":"1f532a2d","callbacks(uint64)":"fdba7ab8","executeZKMessage(bytes,bytes,bytes,bytes)":"9e7ccbe7","executionId()":"76ce2dad","getZkAuthorizationsList(uint64)":"9273c4fb","handleCallback(bytes)":"7003fdf4","owner()":"8da5cb5b","processor()":"ce1b1d43","removeAdminAddress(address)":"95101181","removeRegistries(uint64[])":"df0cab02","removeStandardAuthorizations(string[])":"32f8b25c","renounceOwnership()":"715018a6","sendProcessorMessage(string,bytes)":"d00329b7","storeCallbacks()":"b06abffc","transferOwnership(address)":"f2fde38b","updateProcessor(address)":"8e8c6848","updateVerificationGateway(address)":"42738825","validateBlockNumberExecution(uint64)":"aa2de6c3","verificationGateway()":"d47256cf","zkAuthorizationLastExecutionBlock(uint64)":"a34f92e8","zkAuthorizations(uint64,uint256)":"311c7376"},"id":64}